:10000000010000000D900D90848B010001000000A4
:1000100000102000237DCC810000000000000000C3
:1000200000000000000000000000000000000000D0
:100030000000000000000000000000000D900D9086
:10004000A55A0000002020080000008000000000E9
:1000500000000000000000000000000000000000A0
:100060000000000000000000000000000000000090
:100070000000000000000000000000000000000080
:100080000000000000000000000000000000000070
:1010000008960200FD412008B1412008B1412008A6
:10101000B1412008B1412008B14120080000000082
:10102000000000000000000000000000A1382008BF
:10103000B141200800000000F138200807242008F2
:10104000B1412008B1412008B1412008B141200838
:10105000B1412008B1412008B1412008B141200828
:10106000B1412008B1412008BD050000C56B200832
:101070003D4D200839B62008B1412008B141200873
:10108000B1412008B1412008ADAB200851AC200887
:10109000B141200845AB2008B1412008B1412008EA
:1010A000B1412008B1412008B1412008B1412008D8
:1010B000B1412008B141200808960200B141200842
:1010C000FD4120081505000089A22008B141200833
:1010D000B1412008B1412008254D2008314D20089C
:1010E0002D412008B141200821B620085B4FAB6993
:1010F000B1412008B1412008794A2008B1412008B7
:10110000B1412008B141200815AB20082DAB2008C3
:1011100055AA20086DAA200885AA20089DAA2008A3
:10112000B5AA2008CDAA2008E5AA2008FDAA200813
:10113000B14120082DB62008B1412008B141200856
:10114000B1412008B1412008B1412008B141200837
:10115000B1412008B1412008B1412008B141200827
:10116000B1412008B1412008B14120080000000031
:10117000000000000000000000000000000000006F
:101180000348044B834202D0034B03B11847704716
:10119000701A0000701A0000000000000548064B9D
:1011A0001B1AD90F01EBA301491002D0034B03B165
:1011B00018477047701A0000701A00000000000005
:1011C00010B5064C237843B9FFF7DAFF044B13B18F
:1011D0000448AFF300800123237010BD701A000093
:1011E00000000000C879210808B5054B1BB105496E
:1011F0000548AFF30080BDE80840FFF7CFBF00BF50
:1012000000000000741A0000C8792108F8B5194FD1
:10121000194E1A4D0AF04EFA09F04AFE0AF04CFA3D
:1012200009F0D4FF0AF07CFA09F0E8FD0AF07AF838
:1012300009F0C0FF09F082FD09F0D4FC39461048DE
:101240000AF0B0FA0446014630460BF0C3FC2A46C9
:10125000214638460AF0DEFA014630460BF0BAFC69
:1012600028460AF0C1F807480BF01CFDBDE8F8401D
:1012700000F016B8BC8F0000560021088C1A000040
:101280002801210830FE2008704708B5FFF7BEFF8F
:1012900000F0A2F800B908BDFFF7F6FFF8E700007C
:1012A00008B50A4A0A48002100F008F960B1094A65
:1012B0000948002100F002F930B1BDE80840074AB2
:1012C0000748002100F0FAB808BD00BF98FE2008CA
:1012D00065BE200874FE200855BD200850FE200879
:1012E00015BD2008704770477047704708B502F079
:1012F0000DFB06F081FEBDE8084002F0DDB8704746
:1013000000F0B4B800F004B87047704770470000B0
:10131000014809F0F3B800BF1000000008B500F064
:1013200012F800F057F8FEE77047704708B5FFF76E
:10133000DDFFFFF7E7FFFFF7E7FFFFF7E6FFBDE899
:101340000840FFF7E3BF08B5FFF7EEFF01F062FFCB
:10135000FFF7EBFF00F064F800F009F8FFF7CFFFAC
:1013600000F01EF8BDE80840FFF7E0BF704708B581
:10137000FFF7B8FFFFF7B7FFFFF7B6FFFFF7B5FFBF
:10138000FFF7F4FF08BD000008B5FFF77EFF034B31
:101390001868BDE8084000F0E6B800BFEC040100A2
:1013A00030B5094D0FCD8BB001AC0FC40FCD0FC4BC
:1013B0002B680648236001AA002100F07FF8044B47
:1013C00018600BB030BD00BFBCFE20088923200888
:1013D000EC040100FFF794BF0020704710B5EFF355
:1013E000058414B10124204610BD0DF015FD01281F
:1013F000F9D0EFF31083002BF4D1EFF31184003C0C
:1014000018BF0124EFE708B54FF0E0231B690DF08A
:1014100003FD012803D0BDE8084001F00FBB08BD63
:1014200008B5FFF7DBFF48B90DF0F6FC01280346CD
:1014300007D1054A106820B9136008BD6FF0050098
:10144000FBE74FF0FF30F8E7E011010008B50DF0C1
:10145000E3FC38B1022804D0034B1868431E5842FD
:10146000584108BD0320FCE7E011010010B5FFF76B
:10147000B5FF044668B90DF0CFFC01280CD1084B2C
:101480001A68012A08D102221A600DF071FC204668
:1014900010BD6FF00500FBE74FF0FF30F8E700BF2D
:1014A000E011010008B5FFF799FF18B1BDE8084049
:1014B0000DF07ABCBDE808400DF062BC2DE9F041AA
:1014C00086B0002305460E4690460593FFF786FF3B
:1014D00000BBFDB1B8F1000F3ED0D8F818402CB1D8
:1014E000631E372B03D906B0BDE8F0811824D8F865
:1014F0000430DB0735D4D8F814306BB19A08D8E93A
:101500000270D8F8001057B1772803D9D8F8100026
:1015100000B1BBB90598E6E74FF48072EFE7002809
:10152000F8D1D8F81030002BF4D105AB013C019371
:101530000094334628460DF03BFC01281CBF0023D5
:101540000593E7E7013CCDE90107009433462846BF
:101550000DF042FC0590DDE7414618244FF48072FF
:10156000E3E70020BFE738B50546FFF737FF04463D
:1015700050B965B128460DF0FFFB04280AD0284673
:101580000DF0F2FB204638BD6FF00500FBE76FF071
:101590000300F8E76FF00200F5E710B50446FFF727
:1015A0001DFF28B914B120460DF02EFC002010BDFF
:1015B0006FF00500FBE738B50546FFF70FFF10B1E8
:1015C0000024204638BD25B9BDE83840012000F090
:1015D00092BC6B681A07F3D4D5E9021203F0010339
:1015E00079B14F2AECD99BB1042000F050FC04469D
:1015F0000028E5D0296809B100F02CFF44F001046F
:10160000DFE7002ADCD17BB1042000F074FCEEE7B8
:10161000012000F03CFC04460028D1D029680029B4
:10162000CFD000F017FFCCE7012000F064FCF2E718
:10163000F8B505460C4620F0010600F00107FFF75B
:10164000CDFEA0B9012D15D92146304667B100F075
:1016500083FE012801D10020F8BD002C14BF6FF0DB
:1016600001006FF00200F7E700F0C2FDF1E76FF054
:101670000500F1E76FF00300EEE770B5044620F0D7
:10168000010500F00106FFF7A9FE90B9012C13D95E
:1016900046B1284600F010FC01280CBF00206FF076
:1016A000020070BD334632463146284600F033FB17
:1016B000F2E76FF00500F4E76FF00300F1E773B5B0
:1016C00004460E461546FFF789FE70BB6CB3B44264
:1016D0002BD35DB9012C3BD120460322002100F021
:1016E000BCFA044608B396B905B32AE0D5E902323C
:1016F000CBB14F2A19D9012C1BD1032200920146EC
:101700000246204600F068FA044670B1CEB10023CC
:101710001A461946204600F0FEFA0128E4D0204679
:1017200000F0E2FE01E0002AD4D00024204602B0FE
:1017300070BD20461A46314600F0BFFA0446002824
:10174000F3D029680029F1D0204600F083FEEDE7B0
:101750002046314600F0CAFA04460028C4D1E4E726
:1017600037B50C46054618B96FF0030003B030BD1D
:10177000FFF734FED8B1002CF6D101AA2146284645
:10178000019400F00AFE012802D06FF00200EDE79C
:10179000019B0BB90020E9E74FF0E0234FF08052A6
:1017A000C3F8042DBFF34F8FBFF36F8FF2E72146CD
:1017B000284600F01DFD0128ECD0002CE5D06FF08C
:1017C0000100D3E713B5044628B3FFF707FE03462D
:1017D000C8B1002301A92046019300F00AFC0128AA
:1017E00003D06FF0020002B010BD019B4BB14FF06F
:1017F000E0234FF08052C3F8042DBFF34F8FBFF3A7
:101800006F8F0020EFE702460146204600F083FA82
:101810000128F6D0E5E76FF00300E4E7F7B50546E9
:101820000E461446FFF7DAFD18B10025284603B02E
:10183000F0BD002DF9D0002EF7D03CB3D4E9023230
:10184000BBB14F2AF1D92269002AEED0676906FBA5
:1018500005F18F42E9D300903146284600F0BCF9EB
:1018600005460028E1D021680029DFD000F0F2FD14
:10187000DCE7002AD9D12369002BD6D16269002A7E
:10188000D3D13146284600F0E8F9E9E7224631464F
:10189000284603B0BDE8F04000F0DFB973B51C4640
:1018A00005460E46FFF79AFD0346F0B15DB356B309
:1018B0004CBB234601AA31462846019400F02DFB7B
:1018C000012803D06FF0020002B070BD019B0BB97C
:1018D0000020F9E74FF0E0234FF08052C3F8042DC9
:1018E000BFF34F8FBFF36F8FF2E765B15EB1224652
:1018F0003146284600F00FFA0128E9D0002CE1D04B
:101900006FF00100E0E76FF00300DDE773B5054617
:101910000E461C46FFF762FDE8B155B34EB344BB1B
:1019200001AA31462846019400F037FD012803D072
:101930006FF0020002B070BD019B0BB90020F9E707
:101940004FF0E0234FF08052C3F8042DBFF34F8FC8
:10195000BFF36F8FF2E765B15EB12246314628468C
:1019600000F0A7FB0128E9D0002CE1D06FF00100C6
:10197000E0E76FF00300DDE7034B0360034B0B6010
:101980004FF480731360704768110100680D010007
:10199000034B0360034B0B604FF4007313607047FD
:1019A000F00C0100F004010000F108034FF0FF32D9
:1019B000C0E90223436003610023036070470023F2
:1019C0000361704743684B609A688A605160996010
:1019D0000368086101330360704730B50C68631C0D
:1019E0000AD103695A684A6091608B605960036844
:1019F00008610133036030BD00F1080213465268EC
:101A00001568A542FAD9EDE7D0E9011203698A60A9
:101A100051605968814208BF5A600022026118680B
:101A200001381860704710B5044600F0D3FFA46B6E
:101A300000F0F0FFB4FA84F0400910BD70B516460E
:101A4000026C856B044642B906689EB980680DF049
:101A5000CBF9A6600135A56370BD6EB940680BF087
:101A6000AFFA6368226C1344A2686360934224BF98
:101A7000236863600020EDE7C0680BF0A1FA226CD8
:101A8000E36851429B1A2268E36093423EBFA36819
:101A90005B18E360022EEDD10DB1013DEAE7284667
:101AA000D8E7034610B41A6C08466AB1DC68996836
:101AB00014448C4228BF1968DC6028BFD960D968FB
:101AC0005DF8044B0BF07CBA5DF8044B704770B5C1
:101AD000044600F07FFF94F8455004F124066DB2EF
:101AE000002D14DCFF2384F8453000F093FF00F054
:101AF00071FF94F8445004F110066DB2002D12DC11
:101B0000FF2384F84430BDE8704000F083BF636A6F
:101B1000002BE7D030460DF06FF908B10DF038F921
:101B2000013D6DB2DCE72369002BE9D030460DF0B2
:101B300063F908B10DF02CF9013D6DB2DEE770B527
:101B40000E46044640B94FF0140383F31188BFF3E7
:101B50006F8FBFF34F8FFEE7C56BA5B3036CA3FB7D
:101B6000053585BB00F036FFD4E90F31226862608D
:101B70004B43D0185B1A1A44FF23A563A06084F876
:101B80004430E26084F84530A6B9236973B104F1AA
:101B900010000DF031F948B14FF0E0234FF08052C2
:101BA000C3F8042DBFF34F8FBFF36F8F00F032FFE8
:101BB000012070BD04F11000FFF7F6FE04F12400CF
:101BC000FFF7F2FEF2E74FF0140383F31188BFF33F
:101BD0006F8FBFF34F8FFEE737B50D461C4643B9F5
:101BE0004FF0140383F31188BFF36F8FBFF34F8F50
:101BF000FEE748B3B2B139B350230193019B502B98
:101C000019D1019B22600121C4E90F0584F8461017
:101C10002046FFF794FF9DF8183084F84C3020469A
:101C200003B030BD81B950230193019B502B02D1E9
:101C3000019B2246E6E74FF0140383F31188BFF3BC
:101C40006F8FBFF34F8FFEE74FF0140383F31188BC
:101C5000BFF36F8FBFF34F8FFEE72DE9F0410D46C5
:101C60001746064600B3A1FB0038B8F1000F1BD1A0
:101C7000484310F1510F17D8503000F0F1FF0446DF
:101C800068B180F846806DB100F15003C4E90F657A
:101C9000236001212046FFF752FF84F84C70204654
:101CA000BDE8F0810346F1E74FF0140383F3118898
:101CB000BFF36F8FBFF34F8FFEE713B513460C468C
:101CC00058B1884209D30222009200221146FFF740
:101CD00083FF00B1846302B010BD4FF0140383F39F
:101CE0001188BFF36F8FBFF34F8FFEE710B50C461F
:101CF00040B1884206D302220021FFF7AEFF00B1B7
:101D0000846310BD4FF0140383F31188BFF36F8F0A
:101D1000BFF34F8FFEE7F0B585B00E4601921D462A
:101D2000044640B94FF0140383F31188BFF36F8F5B
:101D3000BFF34F8FFEE751B9036C43B14FF014036B
:101D400083F31188BFF36F8FBFF34F8FFEE7022D30
:101D50000BD1E36B012B08D04FF0140383F31188F0
:101D6000BFF36F8FBFF34F8FFEE70DF055F808B943
:101D7000019B03BB00F02EFEA26BE36B9A4223D2C1
:101D80002A4631462046FFF759FE636A1BB104F12B
:101D900024000DF031F848B14FF0E0234FF08052AD
:101DA000C3F8042DBFF34F8FBFF36F8F00F032FEE7
:101DB000012005B0F0BD4FF0140383F31188BFF389
:101DC0006F8FBFF34F8FFEE7022DD9D000231F4640
:101DD00037E013B902A80CF0DFFF00F01BFE0DF096
:101DE00007F800F0F7FD94F84430FF2B08BF84F8A3
:101DF000447094F84530FF2B08BF84F8457000F01C
:101E000009FE01A902A80CF0DBFF002839D100F07F
:101E1000E1FDA26BE36B9A421AD100F0FBFD019940
:101E200004F110000CF0D4FF2046FFF750FE0CF038
:101E3000F7FFD8B100F0CEFDA36BE26B9A429FD8BA
:101E40000123019A002AC4D100F0E4FD0020B0E78C
:101E500000F0E0FD2046FFF73AFE0CF0E1FF00F055
:101E6000B9FDA26BE36B9A42EAD289E74FF0E02317
:101E70004FF08052C3F8042DBFF34F8FBFF36F8F25
:101E8000EDE72046FFF723FE0CF0CAFFDEE713B5AF
:101E900000220B46009011460120FFF79DFE0446EC
:101EA00038B1002383600360C3601A461946FFF708
:101EB00032FF204602B010BD38B5044640B94FF09D
:101EC000140383F31188BFF36F8FBFF34F8FFEE7C7
:101ED00085680CF095FF85420BD1E368013BE36018
:101EE0000BB1012038BD1A4619462046FFF713FFF3
:101EF000F7E70020F6E710B5024600210120FFF7C2
:101F0000ACFE044638B1002383600360C3601A4608
:101F10001946FFF700FF204610BD2DE9F84389461A
:101F200017461E46044640B94FF0140383F3118848
:101F3000BFF36F8FBFF34F8FFEE751B9036C43B10F
:101F40004FF0140383F31188BFF36F8FBFF34F8FEC
:101F5000FEE7022E0BD1E36B012B08D04FF01403E8
:101F600083F31188BFF36F8FBFF34F8FFEE700F04D
:101F700049FEEFF311884FF0140383F31188BFF388
:101F80006F8FBFF34F8FA26BE36B9A4201D3022E88
:101F90002DD194F84550A36B6DB232464946204688
:101FA000FFF74CFD6B1C0ED1636A3BB104F12400BA
:101FB0000CF022FF10B10FB101233B60012088F328
:101FC0001188BDE8F8830CF023FF8542F6D27F2DFF
:101FD00008D14FF0140383F31188BFF36F8FBFF361
:101FE0004F8FFEE701356DB284F84550E6E70020DB
:101FF000E5E7F8B50E46044640B94FF0140383F305
:102000001188BFF36F8FBFF34F8FFEE7036C43B1AF
:102010004FF0140383F31188BFF36F8FBFF34F8F1B
:10202000FEE7036853B9836843B14FF0140383F3A9
:102030001188BFF36F8FBFF34F8FFEE700F0E2FD13
:10204000EFF311874FF0140383F31188BFF36F8F01
:10205000BFF34F8FA36BE26B9A4228D994F84520C7
:102060000133FF2A55B2A3630DD1636A3BB104F17A
:1020700024000CF0C1FE10B10EB101233360012029
:1020800087F31188F8BD0CF0C3FE8542F7D27F2D8F
:1020900008D14FF0140383F31188BFF36F8FBFF3A0
:1020A0004F8FFEE701356DB284F84550E7E7002019
:1020B000E6E7F0B585B00E460192044640B94FF010
:1020C000140383F31188BFF36F8FBFF34F8FFEE7C5
:1020D00051B9036C43B14FF0140383F31188BFF37C
:1020E0006F8FBFF34F8FFEE70CF096FE50B9019B48
:1020F00043B14FF0140383F31188BFF36F8FBFF325
:102100004F8FFEE700F066FCA56BDDB1314620463F
:10211000FFF7C7FC2369013DA56373B104F110000B
:102120000CF06AFE48B14FF0E0234FF08052C3F844
:10213000042DBFF34F8FBFF36F8F00F06BFC0120B6
:1021400005B0F0BD019B1BB900F064FC0020F7E76F
:1021500002A80CF021FE2F4600F05CFC0CF048FEBB
:1021600000F038FC94F84430FF2B08BF84F844702A
:1021700094F84530FF2B08BF84F8457000F04AFC06
:1021800001A902A80CF01CFE38BB2046FFF74BFC4F
:10219000E8B1019904F124000CF01AFE2046FFF783
:1021A00096FC0CF03DFE48B94FF0E0234FF0805212
:1021B000C3F8042DBFF34F8FBFF36F8F00F00AFCFD
:1021C000A56B002DA2D1019B002BC5D1BCE72046F9
:1021D000FFF77DFC0CF024FEF0E72046FFF777FCCC
:1021E0000CF01EFE2046FFF71EFC0028E6D0ADE7EF
:1021F000F0B585B00446019140B94FF0140383F364
:102200001188BFF36F8FBFF34F8FFEE7056C45B1A9
:102210004FF0140383F31188BFF36F8FBFF34F8F19
:10222000FEE70CF0F9FD064620B32E46002700F02D
:10223000D1FBA36B53B3013BA363236813B90CF029
:10224000F3FDA060236973B104F110000CF0D4FD1C
:1022500048B14FF0E0234FF08052C3F8042DBFF394
:102260004F8FBFF36F8F00F0D5FB012005B0F0BD9D
:102270003546DBE7019B002BFAD04FF0140383F3C4
:102280001188BFF36F8FBFF34F8FFEE7019B1BB920
:1022900000F0C0FB0020E9E716B902A80CF07CFDB5
:1022A00000F0B8FB0CF0A4FD00F094FB94F844306F
:1022B000FF2B08BF84F8447094F84530FF2B08BF0B
:1022C00084F8457000F0A6FB01A902A80CF078FD87
:1022D00050BB2046FFF7A7FB00B323683BB900F0D3
:1022E00079FBA0680CF068FD054600F093FB0199AE
:1022F00004F124000CF06CFD2046FFF7E8FB0CF025
:102300008FFD48B94FF0E0234FF08052C3F8042D01
:10231000BFF34F8FBFF36F8F012688E72046FFF78B
:10232000D6FB0CF07DFDF7E72046FFF7D0FB0CF065
:1023300077FD2046FFF777FB0028EDD0002DA9D0D0
:1023400000F048FB616A19B1236B1968C1F13801CB
:10235000A0680CF039FD9BE770B50D46044640B906
:102360004FF0140383F31188BFF36F8FBFF34F8FC8
:10237000FEE786680CF044FD864204D1E368013331
:10238000E360012070BD29462046FFF731FF002899
:10239000F8D0E3680133E360F4E72DE9F8438946B8
:1023A0009046044640B94FF0140383F31188BFF3FD
:1023B0006F8FBFF34F8FFEE751B9036C43B14FF0FE
:1023C000140383F31188BFF36F8FBFF34F8FFEE7C2
:1023D00000F018FCEFF311874FF0140383F311881A
:1023E000BFF36F8FBFF34F8FA66B86B394F8445043
:1023F00049466DB22046FFF754FB013E6B1CA663B5
:1024000011D1236953B104F110000CF0F5FC28B18F
:10241000B8F1000F02D00123C8F80030012087F383
:102420001188BDE8F8830CF0F3FC8542F6D27F2DCD
:1024300008D14FF0140383F31188BFF36F8FBFF3FC
:102440004F8FFEE701356DB284F84450E6E7304621
:10245000E5E7000070B540B94FF0140383F311882D
:10246000BFF36F8FBFF34F8FFEE7B9B10C4A002364
:102470001C4615465668864204D105EBC403C3E9E1
:1024800000100BE01BB91668002E08BF134601347C
:10249000082C02F10802EDD1002BF0D170BD00BF75
:1024A000E411010010B540B94FF0140383F3118813
:1024B000BFF36F8FBFF34F8FFEE7094A002352F837
:1024C000331081424FEAC30406D1064A002142F884
:1024D00033102244516010BD0133082BEFD1FAE7CD
:1024E000E8110100E411010010B540B94FF01403E8
:1024F00083F31188BFF36F8FBFF34F8FFEE7FFF7B2
:10250000D1FF90F846301BB9BDE8104000F07EBC0A
:1025100010BD70B504460D46164600F05BFA94F8FF
:102520004430FF2B04BF002384F8443094F8453036
:10253000FF2B04BF002384F8453000F06BFAA36B37
:102540002BB93246294604F124000CF01DFC20462C
:10255000BDE87040FFF7BBBA914208B54160006129
:102560000AD8D21A83699A420DD2084B011D186805
:10257000FFF733FA002008BD9A4201D2994202D2F5
:10258000034B011DF3E70120F5E700BFD41701005D
:10259000D817010070B504460D461646A1692B46B2
:1025A000324629442046FFF7D7FF00B970BDA36922
:1025B00020461D44236A9847F0E700000E4B1B6835
:1025C000DB6870B5DC680546201D0E46FFF71CFA77
:1025D00094F828305A0709D5324629462046FFF795
:1025E000D9FF236A2046BDE87040184723F0010355
:1025F00084F82830F5E700BFD8170100F8B50F4E72
:1026000005460CF0BDFB33688342044609D90C4FE4
:102610003B681A6852B90B4A11683960136001238C
:1026200000E000232B6034602046F8BDDB684FF0EB
:10263000FF311868FFF7C2FFEAE700BFC8170100C3
:10264000D8170100D41701002DE9F0415B4F5C4E13
:1026500086B03B68D3F80080B8F1000F38D0DB6853
:10266000D3F8008000240CF0C3FB02A8FFF7C6FFDC
:10267000029B0546002B48D164BB404530D30CF08B
:10268000CFFB29464046FFF799FF1022002102A800
:102690000AF0E8FB3068002202A9FFF70AFD0028D3
:1026A000D7D0029B0498002B32DB049C6369002B7B
:1026B00035D101A8FFF7A2FF029B013B0546082B7D
:1026C000E8D8DFE803F03030535A733030535A0003
:1026D0000124C8E73B4B1B681C68B4FA84F4640906
:1026E00030682246A8EB0501FFF713FF0CF098FBBA
:1026F0000028CAD14FF0E0234FF08052C3F8042DD8
:10270000BFF34F8FBFF36F8FBFE70CF089FBBCE7C0
:10271000039B05999847029B002BBBDBC5E7201D57
:10272000FFF772F9C5E794F82830A16943F0010377
:1027300084F82830039B024619442046FFF70CFF1B
:102740000028A7D094F8283059070AD5A36903991F
:102750002A4619442046FFF71DFF236A2046984762
:1027600098E723F0010384F82830F6E794F828303E
:1027700023F0010384F828308CE794F8283043F0E4
:10278000010384F828300399A16141B94FF0140383
:1027900083F31188BFF36F8FBFF34F8FFEE70346BC
:1027A000024601442046FFF7D7FE73E794F828302D
:1027B0009A07DDD4204600F029FB6BE7D81701000B
:1027C000D0170100D4170100F7B5114C00F002F941
:1027D0002568BDB90F4F104E3846FFF7E5F8304673
:1027E000FFF7E2F80D4B0E4A1F600E4B10211E60E2
:1027F00005200D4B0095FFF7EFF9206010B10B4954
:10280000FFF728FE03B0BDE8F04000F003B900BFB9
:10281000D0170100F0170100DC170100D8170100E4
:1028200078170100D417010028170100E5FE2008E1
:1028300010B588B0FFF7C8FF124B1B68B3B1002476
:1028400007AA06A905A8CDE90544FFF7A1F8059B4D
:102850000293069B019337230093079A0A490B487A
:1028600023460CF0B9FA0A4B186040B94FF0140334
:1028700083F31188BFF36F8FBFF34F8FFEE7012003
:1028800008B010BDD0170100EAFE20084936200824
:10289000CC17010000000000000000000000000054
:1028A000074B19680868B0E8F04F80F30988BFF358
:1028B0006F8F4FF0000080F311887047AFF30080F6
:1028C0002417010008480068006880F308884FF06A
:1028D000000080F3148862B661B6BFF34F8FBFF378
:1028E0006F8F00DF00BF000008ED00E00000000077
:1028F000EFF30980BFF36F8F154B1A681EF0100FAE
:1029000008BF20ED108A20E9F04F10602DE9090082
:102910004FF0140080F31188BFF34F8FBFF36F8F18
:102920000CF03EFA4FF0000080F3118809BC1968E2
:102930000868B0E8F04F1EF0100F08BFB0EC108A26
:1029400080F30988BFF36F8F704700BFAFF300803B
:1029500024170100DFF80C00016841F470010160E8
:102960007047000088ED00E082B0002301930D4B1A
:102970001B68013308D04FF0140383F31188BFF3B1
:102980006F8FBFF34F8FFEE74FF0140383F311886F
:10299000BFF36F8FBFF34F8F019B002BFCD002B0B2
:1029A000704700BF280000004FF0807340F8043CDF
:1029B000074B40F80C3C21F001016FF0020340F896
:1029C000081C40F8202C40F8243C4438704700BFD5
:1029D000693920084FF0140383F31188BFF36F8F18
:1029E000BFF34F8F0A4A13680133012B13600ED1D6
:1029F0004FF0E023D3F8043DDBB243B14FF01403B2
:102A000083F31188BFF36F8FBFF34F8FFEE77047DB
:102A100028000000084A136843B94FF0140383F3F9
:102A20001188BFF36F8FBFF34F8FFEE7013B136039
:102A30000BB983F3118870472800000008B54FF0E8
:102A4000140383F31188BFF36F8FBFF34F8F0CF024
:102A5000C7F928B14FF0E0234FF08052C3F8042D9E
:102A6000002383F3118808BD4FF0E0220023136197
:102A70009361054B4FF47A711B68B3FBF1F3013B93
:102A8000536107231361704788E001004FF0E02392
:102A900037B5D3F8001D534A914208D14FF01403C3
:102AA00083F31188BFF36F8FBFF34F8FFEE7D3F827
:102AB000001D4D4A914208D14FF0140383F3118851
:102AC000BFF36F8FBFF34F8FFEE7D3F8083D474A40
:102AD000D96A914208D04FF0140383F31188BFF3F1
:102AE0006F8FBFF34F8FFEE79A6B414B9A4208D02E
:102AF0004FF0140383F31188BFF36F8FBFF34F8F31
:102B0000FEE7002301933B4B1A78D2B28DF80220E6
:102B1000FF221A701B78384ADBB28DF803309DF81B
:102B2000033003F01403137043B94FF0140383F31D
:102B30001188BFF36F8FBFF34F8FFEE79DF803300F
:102B4000DB4313F0140F10D04FF0140383F31188FC
:102B5000BFF36F8FBFF34F8FFEE7013301939DF8F3
:102B600003305B00DBB28DF803309DF8033013F0C7
:102B7000800F019BF1D1082B18BF019B1F4A14BF86
:102B8000C3F1070300231B0203F4E06313609DF805
:102B90000230184A4FF0E024DBB21370D4F8203D25
:102BA00043F47F03C4F8203DD4F8203D002543F0D2
:102BB0007F43C4F8203DC4F81C5DFFF755FF104B60
:102BC0001D60FFF7C7FED4F8343F43F04043C4F81C
:102BD000343FFFF777FE0CF0E3F8FFF7C5FE284619
:102BE00003B030BD71C20F4170C20F41A13820083F
:102BF000F138200800E400E0081801000418010082
:102C000028000000EFF305830F2B0ED9114A9B5CBF
:102C1000114A12789A4208D94FF0140383F31188AD
:102C2000BFF36F8FBFF34F8FFEE74FF0E0230B4AE8
:102C3000D3F80C3D126803F4E063934208D94FF0D7
:102C4000140383F31188BFF36F8FBFF34F8FFEE739
:102C5000704700BFF0E300E008180100041801000D
:102C6000F8B5431E0A33624D24D90CF0C1F82B6825
:102C700063BB00245F4A604853071FBFD11D21F08A
:102C8000070102F54842531A0CBF4FF448430A4665
:102C90001344083B23F00703002141600260C3E9AD
:102CA0000011991AC2E900312B60544B1960544B42
:102CB00019601BE010F0070300F108040BD10CF0C1
:102CC00097F82B68002BD5D0002C11DA0CF0A8F85F
:102CD00000252846F8BDA3F10902A242C5D3103051
:102CE000C41A0CF085F82B68002BC3D0002CEDDD46
:102CF000DFF80CC1DCF80010A142E7D33E4ADFF850
:102D0000F4E01368734502D33E4FBB4217D94FF02E
:102D1000140383F31188BFF36F8FBFF34F8FFEE768
:102D2000764502D3BE421A4608D94FF0140383F306
:102D30001188BFF36F8FBFF34F8FFEE7334658689C
:102D4000A04202D21E68002EEAD12D689D42BDD05D
:102D500015680835754501D3BD4208D94FF01403F5
:102D600083F31188BFF36F8FBFF34F8FFEE71F68A8
:102D70001760A0420FD3001B102819D91E1916F096
:102D8000070F11D04FF0140383F31188BFF36F8F37
:102D9000BFF34F8FFEE74FF0140383F31188BFF3A7
:102DA0006F8FBFF34F8FFEE770605C601F5116603E
:102DB00058680A1A1149CCF800200C68A24238BFA2
:102DC0000A6000221A60104A40F000405860136800
:102DD000013313600CF024F86B073FF47AAF4FF027
:102DE000140383F31188BFF36F8FBFF34F8FFEE798
:102DF0001C180100281801002018010014180100F7
:102E00001818010027E0010010180100F8B5054668
:102E100000286FD0384FA0F10804BC4212D3374EBF
:102E2000B4420FD850F8043C002B14DA50F8082CA8
:102E3000D2B14FF0140383F31188BFF36F8FBFF348
:102E40004F8FFEE74FF0140383F31188BFF36F8FAA
:102E5000BFF34F8FFEE74FF0140383F31188BFF3E6
:102E60006F8FBFF34F8FFEE723F0004340F8043C21
:102E70000BF0BEFF224A55F8041C13680B44136084
:102E8000204B18461A461B689C42FBD882420CD045
:102E9000BA4201D3B24208D94FF0140383F3118828
:102EA000BFF36F8FBFF34F8FFEE750681618B44221
:102EB00006D1014450188342516010D1144602E0FB
:102EC0006018834213D11048006883421FBF5868BE
:102ED0004018606018682060A24218BF14600B4A56
:102EE000136801331360BDE8F8400BF099BF45F853
:102EF000083CF1E7F8BD00BF2818010027E00100F9
:102F000018180100201801001C1801000C180100FD
:102F100030B5114B93F85830013BDBB2FD2B8FB02D
:102F200018D80E4D0FCD6C460FC40FCD0FC40FCD6A
:102F30000FC495E8030084E80300094C6846D4F800
:102F4000443713F041FD05F00DF9D4F84437002063
:102F50000FB030BD0120FBE700021F0858021F0818
:102F600000800524134B0168D3F84437F0B50127DE
:102F7000013900D2F0BDD0F808C04668CCF38455C2
:102F8000C5EBDC62346801320023013A0CD203FA4B
:102F900005F203EA0C03C3F3150324EA0202AB4073
:102FA000134333600830E3E707FA02FE43EA0E03F7
:102FB000EBE700BF0080052408B51848FFF7D2FFF3
:102FC0001748FFF7CFFF05F045FB05F057FB05F06D
:102FD00061FB05F073FB05F07DFB1248FFF7C2FFB4
:102FE0001148FFF7BFFF1148FFF7BCFF1048FFF77C
:102FF000B9FF1048FFF7B6FF0F48FFF7B3FF0F48C0
:10300000FFF7B0FF0E48FFF7ADFF0E48FFF7AAFF2E
:10301000BDE808400C48FFF7A5BF00BF1C1A000020
:1030200080190000BC150000881600007C16000006
:103030009C1600005C1500005015000044150000AF
:1030400098150000E0150000D415000010B5254CBF
:10305000FFF7B2FF94F8040600F00100FFF758FFF5
:103060004FF4C023C4F86C34D4F840311E4843F404
:103070000023C4F84031D4F8403143F00103C4F8D0
:103080004031D4F8403143F00203C4F84031FFF737
:1030900069FF16491648D1F8103543F00203C1F80C
:1030A0001035636923F400336361636943F480334B
:1030B0006361D0F84027D0F87837C2F34342023A30
:1030C00023F4F07343EA4213C0F87837D1F894340C
:1030D00043F40023C1F89434236943F4601323615B
:1030E00010BD00BF00800424A817000000A0052424
:1030F0000080052408B550B10748FFF733FF0748A3
:10310000FFF730FF0648BDE80840FFF72BBF054832
:10311000FFF728FF0448F6E7F017000098180000B2
:103120008C18000064180000101800000B48D0F83C
:1031300000D05DF804EB5DF804CB5DF804BB5DF8EE
:1031400004AB5DF8049B5DF8048B80BC40BC20BCE4
:1031500010BC08BC04BC02BC01BC704734E00100D8
:10316000114AD2F8103623F48073C2F810360F4B90
:10317000596B41F001015963596B41F002015963E8
:103180000423C2F8383482B000238DF807309DF84C
:103190000730092B01D902B0704700BF9DF80730F6
:1031A0000133DBB2F1E700BF008004240084042473
:1031B000FEE7FEE7054B064A06498B4200D37047FF
:1031C00052F8040B43F8040BF7E700BF10000000AF
:1031D000E47B2108701A0000064B0748DA1C121A1B
:1031E000C11E22F00302994288BF0022002109F08B
:1031F00039BE00BF08660200701A000008B5FFF76C
:10320000D9FFFFF7E9FF00F0BBF8BDE80840FEF783
:1032100085B8000038B562B63A4B3B4A1A603B4B62
:103220003B4A93F806363B4C3B4D03F00F030F2B04
:1032300015BF3A4B4FF00063D3F89312D3F837140D
:103240000CBF11601160364A0CBFD3F83634D3F886
:103250009232136005F0C8FC05F004F92A4BE363D1
:10326000032005F0BDFB05F0FFF82E4BDB694FF0A6
:103270008061D3F880304FF08C409847EB69022092
:1032800060F30E33EB61284BDA696FF30202DA6107
:1032900005F064F91D4B1A6A042161F302021A62F7
:1032A0001A6A1207FCD5AB69022262F38403AB6190
:1032B000AB691B04FCD51D4B1D4D5A6E6FF34102CB
:1032C0005A665A6E6FF300025A66FFF749FF1949B2
:1032D0000D4B21614FF4FA40E16117496062002211
:1032E00020624FF40040C4E90033C4E90B15C4E97F
:1032F0000F33A2606261E360A06263636164A261F4
:1033000038BD00BF88E00100005A6202008004243A
:1033100030E0010038E001000081042400001F08B3
:103320002CE0010000013000008604240084042405
:10333000002D310100B4C4040048E8014FF0E0233F
:1033400084B0D3F8402F0192D3F8442F0292019910
:10335000094A91420DD10299084A914209D1D3F804
:10336000882D0392039A42F470020392039AC3F8E1
:10337000882D04B0704700BF21001110110000110A
:1033800013B50023009301932F4BD3F8102500921F
:10339000009A00922D4A116821F00F011160116806
:1033A0001160D3F89C1421F46071C3F89C14D3F815
:1033B000041701910199C3F80415D3F8001701917E
:1033C0000199C3F80015D3F8101541F01C01C3F89A
:1033D0001015D2F8024014F48074FAD11C484369E5
:1033E00043F480334361436964F351434361FFF71E
:1033F000A5FF184B4FF080725A60174BC0F8403150
:10340000164B5A6864F3C3025A60036A0E4A43F4C7
:1034100080330362036A43F400330362D2F89434C6
:1034200043F40023C2F89434036943F46013036146
:103430000B4B1A6842F400221A601A6842F4802288
:103440001A6002B010BD00BF00A0052400000524D2
:10345000008004240000304103000800008104249F
:103460000084042410B520F04044012C02D0022C2A
:1034700005D010BD0A4A136801331360F9E7094B00
:1034800009489B6947F23051984708480849006845
:103490000C7000231A46FEF701FA064AEBE700BF5C
:1034A00094E0010070FF200876EF010070EF01004A
:1034B0008CE0010090E0010037B5114CE3689847BB
:1034C000A36810489847236902209847A56A0121FC
:1034D0001520A84701211620A8474FF4E13101200B
:1034E000A847094D286810B9FEF765F82860A36958
:1034F0000648019347F2305103B0BDE83040184709
:1035000070FF20086544200898E0010076EF010074
:1035100013B5094C00238DF804302360074B0121BB
:103520009B6901A8984723681BB19DF8040002B06D
:1035300010BD00F009FCF6E790E0010070FF2008E4
:1035400013B5094C8DF8070000232360074B0121B8
:103550005B690DF10700984723680BB102B010BDFD
:1035600000F0F2FBF8E700BF94E0010070FF2008D4
:1035700003681B780022202B04D0093B042B01D9BF
:10358000D0B270470368591C01605B780132F2E7E2
:103590000120704708B509F0B7FC162303604FF00F
:1035A000FF3008BD08B509F0AFFC16230360FEE745
:1035B00070B50D461446FDF749FF022805D10C4BA6
:1035C0004FF0FF311868FEF733F82E46731BA34205
:1035D00009DBFDF73BFF022803D1054B1868FEF716
:1035E0004CF8204670BD16F8010BFFF7A9FFEDE778
:1035F00098E001004FF0FF3070474FF400534B60EC
:103600000020704701207047002070470FB42DE95B
:10361000F0438BB012AB002453F8046B019304AD5C
:103620008DF81040A846FFF773FF0D2805F8010B31
:1036300004D00A2802D00134142CF4D19E4B019FEF
:10364000E34004F1280213F001030DEB02041ABF5A
:10365000002304F8183C04F8173C9DF81030CDE91D
:103660000268002B00F04E810025029B1B78002B86
:103670004DD0DDF80C9099F80060002E47D002A8DC
:10368000FFF776FF044618B103A8FFF771FFECE7D8
:10369000029A1346517813F8010B0293252801D1A1
:1036A000252907D18E4232D109F101030232039359
:1036B0000292DAE726462046A0461A7806F07C01F8
:1036C000002A7CD100B1029309B3002C08BF632407
:1036D000082900F08780202900F0AA80042916D14B
:1036E00057F8042B4946144400200E780B4601314C
:1036F000002E6AD100286FD1B7E7692A50D01ED8B2
:10370000632A52D011D8392A07D82F2A34D8E8B2E0
:103710000BB0BDE8F04304B07047582AF7D146F02B
:10372000200601334FF0100832E0642AEFD146F44E
:10373000005646F0200601334FF00A0828E06F3AA1
:10374000D1B20929E3D8092AE1D801A151F822F020
:10375000954720080F4720080F4720080F472008EB
:10376000B94720080F472008334720080F47200893
:103770000F4720081F472008002CC8D10A211A78BB
:10378000303A01FB042413F8012F303A092AF6D904
:10379000012092E746F0200601334FF00808F7E7D2
:1037A00046F0200601338846F2E7012C46F0040675
:1037B00038BF01240133EBE746F00806FAE7002999
:1037C0009BD0002881D002937FE702F8016BA242D0
:1037D0004FF0010089D10B46994503933FF445AF63
:1037E000013542E703A8FFF7C3FE039E57F8043BE9
:1037F000314603EB040C00200C4611F8012B12B9E2
:1038000060B103940AE00D2A0FD8082AF8D803F80B
:10381000012B63454FF00100EED10391039A9642CC
:103820003FF423AF00221A70DAE7202AEFD1E7E74E
:1038300003A8FFF79DFE039BB8F1000F10D0B8F16D
:10384000100F17D11A78302A14D15A7802F0DF02FB
:10385000582A0FD102330393023C4FF0100809E0BD
:103860001A78302A16D15A7802F0DF02582AF1D09D
:103870004FF00808039B1A782B2A0ED02D2A0FD15F
:1038800001330393013C4FF0FF31039A00201444AD
:10389000844616E04FF00A08ECE701330393013C3D
:1038A0000121F2E7A9F14103052B02D920B30392CC
:1038B00022E0A9F1370317E0010010000CFB083CDF
:1038C000012092F800909646B9F1000FEED0A24286
:1038D000ECD0A9F13003DBB2092B06D9A9F16103C1
:1038E000052BDFD8A9F15703DBB2984502F101029D
:1038F000E4D808B1CDF80CE057F8043B0CFB01F11B
:1039000019606DE74FF0FF3501E700BF044802235F
:103910001421C21801334B2B82F80013F9D17047E0
:1039200000E100E0064B1868002382B262F30F0347
:10393000000C60F31F4382B0184602B0704700BF0E
:103940006CFF200809207047014803F071B900BFDF
:1039500020FF200837B5044606200D4600F026FB60
:10396000E2B2132A0346084A02D11178A52908D0E9
:10397000127800922946054A204602F043FC03B023
:1039800030BD6FF00600FAE72C00000020FF200891
:10399000014803F07BB800BF20FF20081FB5064B8D
:1039A0001B680293054B0193054B0093054B02F0F6
:1039B0005BFF05B05DF804FB2CE50100B8E10100F8
:1039C0003C00000020FF200807B5064B064A1B6894
:1039D0000193064B0093064B02F046FE03B05DF8E0
:1039E00004FB00BF2CE5010020FF2008B8E1010026
:1039F0003C00000007B5064B064A1B680193064BC6
:103A00000093064B02F078FD03B05DF804FB00BFA5
:103A10002CE5010020FF2008B8E101003C00000077
:103A2000014902F0D5BA00BF20FF20080149024831
:103A300002F0A6BA3C00000020FF200807B5064BA4
:103A40000193064B0093064A064B074902F04EF9D4
:103A500003B05DF804FB00BFB0E401002CE50100F9
:103A60003C00000000FC020020FF2008014B187001
:103A7000704700BF2C000000014803F041B800BFB0
:103A800020FF20080F4BDA79920714D51B79ABB9C8
:103A90000D4B5A6948B142F010025A615A6939B166
:103AA00042F001025A610020704760F30412F4E70B
:103AB00061F30002F6E74FF0FF3070476FF001004E
:103AC000704700BFB8E0010000000345024BD87901
:103AD00000F00100704700BFB8E001000B2801466C
:103AE00003D1054A012002F0DABF0A2803D1024AB5
:103AF000012002F0EFBF704720FF20080B2801468D
:103B000003D1054A022002F0CABF0A2803D1024AA3
:103B1000022002F0DFBF704720FF2008014802F0BA
:103B2000BDBA00BF20FF2008064B1868002382B2F0
:103B300062F30F03000C60F31F4382B0184602B01B
:103B4000704700BFE4FF2008014B1868704700BFB2
:103B500048000000014804F003B900BF480000001D
:103B6000014904F0BDB800BF48000000014804F05E
:103B700095B800BF4800000037B504460B200D463D
:103B800000F014FA064B1B680193064B00930246A3
:103B9000054B2946204603F037FE03B030BD00BF79
:103BA00028E501003000000048000000014803F053
:103BB00027BE00BF48000000014803F01EBE00BF42
:103BC000480000007FB5104BD3E90354B2F5806F75
:103BD0002E883ABF02F1FF33C3F3090340F2FF33EB
:103BE00063F30D162E80258863F30D15074B258092
:103BF0001B680293064B0193064B0093024B03F0A4
:103C0000C3FD04B070BD00BF4800000028E50100FE
:103C1000C8E00100300000000D4B1A69B1F5806F5B
:103C200013B538BF01F1FF33148834BFC3F3090360
:103C300040F2FF3363F30D14064B14801B680193AD
:103C4000054B0093024A054B03F018FD02B010BD6E
:103C50004800000028E50100C8E001003000000035
:103C60000D4BDA68B1F5806F13B538BF01F1FF3342
:103C7000148834BFC3F3090340F2FF3363F30D1418
:103C8000064B14801B680193054B0093024A054BB9
:103C900003F05EFC02B010BD4800000028E5010002
:103CA000C8E0010030000000024B034A1B680349D2
:103CB00003F09ABB28E50100300000004800000036
:103CC000034B044904484FF400129A6403F02CBBE0
:103CD00000840424300000004800000007B5064BB3
:103CE0000193064B0093064A064B074903F090FAEE
:103CF00003B05DF804FB00BF38E4010028E50100D3
:103D000030000000001C062448000000014AC9B22F
:103D100003F0ECB948000000014AC9B203F012BA3E
:103D200048000000014803F0E1B800BFE8000000CF
:103D3000014803F0DBB800BFA4000000014803F015
:103D4000D5B800BF48000000FFF7F8BF01280146C2
:103D500002D1044A03F0CAB918B9024A012003F09B
:103D6000F1B97047480000000128014603D1054A17
:103D7000022003F0BBB918B9024A022003F0E2B9ED
:103D8000704700BF48000000354BDFED366AD3F8BE
:103D9000102242F04002C3F8102207EE900AD3F836
:103DA0001022F4EEE67A42F01002F1EE10FA07EE7D
:103DB000101A82B0C3F8102206DCF0EE086AB4EEE6
:103DC000E67AF1EE10FA08D5D3F8102242F020027C
:103DD000C3F81022002002B070479FED237AF4EE62
:103DE000C77AF1EE10FA10D5D3F810226FF3030260
:103DF000C3F81022D3F810226FF38612C3F81022F2
:103E0000D3F810226FF30412E2E777EEC77ADFED02
:103E1000176A134A87EEA67AF7EE007A77EE277ACA
:103E2000FCEEE77ACDED017A9DF80430F6EE007AEB
:103E300077EE277A07EE103AB8EE477AB4EEE77AD3
:103E4000F1EE10FAC2BFFCEEE77ACDED017A9DF8F3
:103E50000430D2F8101263F30301C2F81012B9E76C
:103E60000038042433333340CDCCCC3F0AD7A33DB4
:103E70000A4B9A6C013A052A0ED8DFE802F00305D6
:103E80000705090B586C7047D86A7047D86B7047A4
:103E9000186B7047586B70470020704738E001007E
:103EA00006281DD8DFE800F0040A0D1013161900CB
:103EB0000C4B586809B1B0FBF1F07047094B186A18
:103EC000F8E7084B586AF5E7064B986AF2E7054BA6
:103ED000D86AEFE7034B186BECE7024BD868E9E7C9
:103EE0000020E7E738E0010010B5032814D8DFE828
:103EF00000F0020A0D100F48C06A7AB1A3B981B16F
:103F0000B0FBF1F00DE00B48C069F6E709484069E5
:103F1000F3E708488068F0E70020EEE723B909B925
:103F2000400810BD4900EBE7CB07FAD50229F8D9C4
:103F3000E6E700BF38E00100F8B50C461546042856
:103F400028D8DFE800F003211B1E2400FFF790FFB4
:103F500015B394B107F0D6FD064620460F4607F08C
:103F6000D1FD104B002207F091FC02460B46304673
:103F7000394607F06BFF08F0D9F8F8BD0A4BD8694D
:103F8000E6E7094B5869E3E7074B9868E0E7064B1B
:103F9000D868DDE70020DBE7002CEED0B0FBF4F0C2
:103FA000EBE700BF0000E03F38E0010010B50E284D
:103FB00000F28F81DFE810F00F001E002D0053008B
:103FC000720084009600B300CA00DD00E70009011A
:103FD0003201600182014FF08C43BDE81040D86986
:103FE000D969DA69C1F3C301C2F3407200F0070076
:103FF000FFF7A2BF4FF08C43BDE81040D869D969E4
:10400000DA69C1F38321C2F38072C0F3C210FFF7F3
:1040100093BF4FF08C4293699469C3F3C233C4F3E6
:10402000C324052B19D8DFE803F003090C0F121580
:10403000FFF71EFF0CB1B0FBF4F010BD8C4B98687D
:10404000F8E78B4B1869F5E7894B5869F2E7884B1D
:10405000D869EFE7864BD868ECE70020EAE74FF035
:104060008C42936A946AC3F34243C4F30554032B0E
:1040700012D8DFE803F002080B0EFFF7F9FE002C60
:10408000DBD06400D7E77A4B5869F8E7784B98683B
:10409000F5E7774BD868F2E70020F0E74FF08C4364
:1040A000BDE81040986999699A69DB69C2F34022BA
:1040B000C3F30073C1F3C50100F00700FFF714BF9D
:1040C0004FF08C43BDE81040D86F99699A69DB695D
:1040D000C2F34022C3F30073C1F3C501C0F3422011
:1040E000FFF702BF4FF08C439B69C3F30263042BBD
:1040F00000F2EF80DFE803F003060A0D10005C4BCE
:10410000D8689AE7BDE81040FFF7B2BE584B9868F0
:1041100093E7574BD86990E7554B58698DE74FF0B7
:104120008C4291699369926911F4802F5049C2F3CE
:10413000C0520CBF48698868C3F3C3431AB1002B4F
:104140003FF47BAF12E083B9400876E74FF08C4331
:104150009A6A9B6A12F4806F454A0CBF9069D068D6
:10416000C3F3C523002B3FF468AF5B00B0FBF3F053
:1041700063E7404B98699969BDE81040C1F3464137
:10418000000FFFF78DBE3B4BDA69DB69C2F34302D8
:10419000C3F34713052A16D8DFE802F00306090C1B
:1041A0000F12334A5068DDE7314A106ADAE7304AC5
:1041B000506AD7E72E4A906AD4E72D4AD06AD1E7F1
:1041C0002B4A106BCEE70020CCE72A4B1A6A1B6AF9
:1041D000C2F34302C3F34213072A1DD8DFE802F0FB
:1041E00004070A0D10131619214A5068A7E7204A40
:1041F000106AA4E71E4A506AA1E71D4A906A9EE72A
:104200001B4AD06A9BE71A4A106B98E7184AD06895
:1042100095E7174A506B92E7002090E7154B1B6B10
:10422000C3F34303062B54D801A252F823F000BF76
:104230004D52200853522008595220085F5220083E
:10424000655220086B522008FF502008084B586820
:10425000F3E6074B186AF0E6054B586AEDE6044BA7
:10426000986AEAE6024BD86AE7E6014B186BE4E687
:1042700038E0010000140424174B5B6BC3F34303C5
:10428000082B26D801A252F823F000BF4D52200877
:1042900053522008595220085F52200865522008C6
:1042A0006B522008FF502008B1522008B752200856
:1042B0000A4B586BC1E6094B9869BEE6064BD86AB3
:1042C000D96ABDE81040C1F34711C0F34300FFF7BE
:1042D000E7BD0020B1E600BF0014042438E001006F
:1042E000024B1B68D3F8BC30184700BF00013000F8
:1042F000024B1B68D3F8CC30184700BF00013000D8
:10430000024B1B68D3F8EC30184700BF00013000A7
:1043100007EE100AFDEEC77AF8EEE76AF4EEC76A18
:10432000F1EE10FA41BF17EE903A013307EE903AE2
:10433000F8EEE76A16EE900A70470000024B012182
:104340009B69C0B2184700BFE0E50100FFF7F6BF68
:104350001346054A126810B4546C0A46A44600215C
:104360005DF8044B604700BF0001300010B54FF40A
:10437000006004F0B3F8094C094B4FF000725A6426
:1043800022782AB9074B08481B6A01219B6A984783
:10439000237843F00103237010BD00BF30E9010012
:1043A00000840424000130000014042482B0ADF81D
:1043B00004000A4B4FF400621A609DF80420084B79
:1043C0002AB9D3F8082242F40062C3F808225A68D6
:1043D000002042F001025A6002B0704700E100E0A4
:1043E000003804242DE9F04F224B234893F81CE0B9
:1043F000224B1A7800231C4602F59875D9B28E45D7
:104400000CD8DFF880800023A8F5107902F5907CA5
:10441000DAB2964509D80020BDE8F08F30F81510C3
:104420008C4238BF0C460133E8E743B929F81C3009
:104430000133EDE7B5F820B0594489B20AE000270E
:104440001FFA83FABEB2B442F2D900220C4D1046D4
:1044500035F8021F8C4203D9B142EBD1013080B252
:10446000013292B25245F3D301370028EAD128F83D
:104470001360DDE7E0E5010000E60100DCE5010096
:104480003EE8010040E80100012800D17047C30761
:1044900001D44008F8E7002070470346012083421A
:1044A00008DC00EBD072A3EB6203B3EBA00FB8BF44
:1044B000400870474000F2E784B02DE9F7430AACAA
:1044C00084E80F000023ADF806309DF8BC515F4B27
:1044D0009DF8BD715A885B68B3FBF2F30DB9012FEB
:1044E00040D15B4901250A885A4C07EE903A92B2B6
:1044F0000AAB03EB820393ED057AF8EE677AB8EE28
:10450000477AC7EE877A17EE900AFFF701FF07EEAA
:10451000900A0B88FCEEE77A9BB203F5987317EECE
:10452000902A24F813200B889BB203F5987334F873
:104530001330012B06D80B889BB203F59873022227
:1045400024F81320444E0DF138094FF00008B7EE5F
:10455000006A5FFA88F39F4207D803B0BDE8F043D2
:1045600004B070470DF10601BDE7B8F1000F17D098
:10457000D9ED007A3288B8EE677AD9ED017AF8EE93
:10458000677AC7EE277A17EE900AFFF7C1FE07EEAB
:10459000900AFCEEE77A17EE903A13FB02F3738071
:1045A000012F08D072881046FFF76EFF18B9104629
:1045B000FFF773FF70808DB10B880AAA9BB202EBE4
:1045C0004303B3F8F430012B08D10B889BB203F5F9
:1045D000987334F81320920824F81320DFED1F7A23
:1045E00000231FFA88F09842ADF806300AD2F4EEA4
:1045F000C67AF1EE10FA27DC08F10108023609F15B
:104600000409A6E70A8892B202F59872013334F8D9
:10461000122007EE102AB8EE477A9BB2C6EE076A60
:1046200077EEA67ADFE70A8892B202F59872013334
:1046300034F812C04FEA4C0C24F812C09BB29842D6
:10464000ADF80630EFD2D7E70023F8E7E0E5010048
:10465000DCE5010000E601005EE80100000000006A
:1046600007EE100ADFED087A084837EE277AF7EEF2
:10467000006AC6EE877AFCEEE77A17EE903A83423C
:1046800028BF03461846704795BFD633404B4C00B1
:1046900084B0F0B506AC84E80E00DFED957A002119
:1046A00023AC0DF16B050A460B46CEB2B04200F2C8
:1046B000B080002B00F0A480B0EE007AF4EEC77A50
:1046C000F1EE10FAB0EE047A05DBF4EEC77AF1EE03
:1046D00010FA00F1DD80F4EEC77AF1EE10FAB0EED8
:1046E000087A05DBF4EEC77AF1EE10FA00F1D68015
:1046F000F4EEC77AF1EE10FAB1EE007A05DBF4EED3
:10470000C77AF1EE10FA00F1CC80F4EEC77AF1EE40
:1047100010FAB1EE047A05DBF4EEC77AF1EE10FA86
:1047200000F1C280F4EEC77AF1EE10FA07DBB1EEC9
:10473000087AF4EEC77AF1EE10FA00F1B880B1EE23
:104740000C7AF4EEC77AF1EE10FAB2EE007A05DBDD
:10475000F4EEC77AF1EE10FA00F1AC80F4EEC77A0D
:10476000F1EE10FAB2EE027A05DBF4EEC77AF1EE62
:1047700010FA00F1A280F4EEC77AF1EE10FA07DB2E
:10478000B2EE047AF4EEC77AF1EE10FA00F19880F6
:10479000B2EE087AF4EEC77AF1EE10FA06DBB2EE6A
:1047A0000C7AF4EEC77AF1EE10FA61D4B3EE017A26
:1047B000F4EEC77AF1EE10FA06DBB3EE027AF4EE0D
:1047C000C77AF1EE10FA60D4B3EE097AF4EEC77A44
:1047D000F1EE10FA06DBB3EE0A7AF4EEC77AF1EEE8
:1047E00010FA70D9B3EE0B7AF4EEC77AF1EE10FA44
:1047F00006DB9FED407AF4EEC77AF1EE10FA74D939
:10480000DFED3D7A9FED3D7A002A18BFF0EE477A42
:1048100065E015F8016FA6F1140CBCF1020F2F7CB6
:104820000FD894ED007AF4EEC77AF1EE10FA03D5C2
:104830000133DBB2F0EE477A0D2F16D0013104348C
:1048400033E7A7F10A0CBCF1020F0CD894ED007A03
:10485000B4EEE77AF1EE10FA03DD0133DBB2F0EEED
:10486000477A182EE9E7182EE6D10132D2B2E5E7F1
:10487000DFED237A9AB39FED217AF4EEC77AF1EE59
:1048800010FA23D5F0EE477A29E0DFED1E7AF1E742
:10489000DFED1D7AD2B1DFED197A20E0DFED1B7A72
:1048A000F8E7DFED1B7AF5E7DFED1A7AF2E7DFEDE7
:1048B0001A7AEFE7DFED197AECE7DFED197AE9E72D
:1048C000DFED187AE6E7DFED187A42B19FED0A7A5C
:1048D000F4EE477AF1EE10FA48BFF0EE477ABDE801
:1048E000F04017EE900A04B07047DFED107AECE765
:1048F0000000000000004C4295BFD6338BE16A36C1
:10490000EFE608369F9D42362E5A823301A90C34B9
:1049100037F859342439EC3434580F35AD18633531
:10492000883E8A35ACC5A735B1B49D36F2DD1C375B
:1049300070B50D4616460446D0B9FFF7E1FCAA480B
:1049400007222146FFF704FD002D40F0AA81012E29
:1049500000F09F810B2C1DD00C2C40F0F580052021
:10496000FFF7CEFCA04807220521FFF7F1FC98E0F5
:10497000012818D10220FFF7C3FC9B48072202211F
:10498000FFF7E6FC002D76D1012E00F082810B2C82
:1049900040F0DA800320FFF7B3FC0722032192489E
:1049A000FFF7D6FC96E002280ED10420FFF7A8FC02
:1049B000072204218C48FFF7CBFC002D00F0668114
:1049C000012D40F0778155E1032805D10620FFF73E
:1049D00097FC07220621EDE7042805D10820FFF700
:1049E0008FFC07220821E5E7052805D10A20FFF7FB
:1049F00087FC07220A21DDE706280CD17B4B202209
:104A00005A601920FFF774FC1920FFF769FC7848F9
:104A10000E221921B4E707281ED1744B20225A60B8
:104A20001B20FFF765FC1B20FFF75AFC0E221B2101
:104A30006F48FFF78DFC002D00F02881012D40F01C
:104A4000D980012E00F019810C2C21D10520FFF70F
:104A500057FC07220521A2E7082840F0FD80634BA0
:104A600020225A601D20FFF743FC1D20FFF738FC71
:104A70000E221D21DCE70B2C1ED0012D40F01A81E7
:104A8000012E00F0FA800C2CE0D00D2C00F0C1803B
:104A90000E2C50D00F2C6FD0102C75D12EE0022D83
:104AA00040D0032D52D1012E59D00E2C70D00F2C96
:104AB00062D0102C30D121E00320FFF721FC4A48BE
:104AC00007220321FFF744FC022D2BD0032D03D135
:104AD000012E44D0002070BD042D00F0A480052DCF
:104AE000DAD1012E40F0A3800720FFF709FC07224E
:104AF0003D481146FFF72CFC102C5ED13B4B202289
:104B00005A601A20FFF7F4FB1A20FFF7E9FB384838
:104B10000E221A21FFF71CFC112C50D0072D5CD15E
:104B2000012E88E0012ED5D169E0012E67D00D2C31
:104B30000FD00E2CBBD10920FFF7E2FB2A48072239
:104B40000921FFF705FCCAE70D2C62D00E2C68D1B5
:104B5000F1E70B20FFF7D4FB07220B211FE70B2007
:104B6000FFF7CEFB204807220B21FFF7F1FB8FE771
:104B70000E2CE0D00F2CB2D10720FFF7C1FB07228B
:104B800019481146FFF7E4FB062DC5D1012E4FE071
:104B90000920FFF7B5FB0722092100E70920FFF7ED
:104BA000AFFB114807220921FFF7D2FB7FE707205F
:104BB000FFF7A6FB07221146F1E6112C0DD10B4B96
:104BC00020225A601C20FFF793FB1C20FFF788FB74
:104BD00007480E221C21FFF7BBFB122C2FD0082DFB
:104BE0007FF478AF012E28E000C00424000030419B
:104BF00000001346022D7FF454AF012E99D10520F9
:104C0000FFF77EFB2E4807220521FFF7A1FB0D2CA5
:104C1000AED10B20FFF774FB294807220B21FFF7C9
:104C200097FB042DA6D1012EB8D00F2CBFD0102C8D
:104C30003FF464AF112CC2D0122C7FF44BAF214B48
:104C400020225A601E20FFF753FB1E20FFF748FB6F
:104C50001D480E221E21A3E60A287FF475AE01200E
:104C6000FFF74EFB164807220121FFF771FB012DCC
:104C70007FF415AF012E7FF42DAF0320FFF740FB2B
:104C80000F4807220321FFF763FB65E6012E7FF43F
:104C900021AF0120FFF734FB094807220121FFF76C
:104CA00057FB0B2C3FF408AF012D3FF4E9AE0C2C61
:104CB0003FF455AE022D3FF438AF0D2CA9D0F0E6ED
:104CC00000C00424000030410000134682B02DE9EA
:104CD000F0410F2906AC84E80C005FD8BDF82040F5
:104CE000BDF8225044EA0503B3F5806F56D22E4B2F
:104CF000079E9DF824809DF825E043F8212001F1CE
:104D0000100701F1400C43F8276001F15007B2424F
:104D100023F81C4023F8175042D0B8F1000F17D0E9
:104D200001F1300802EB4402C0F8D42143F82820F6
:104D300044EAC12242F40048C0F8D881D0F8D881B2
:104D4000C0F8D821D0F8D82143F82C8043F8272088
:104D5000BEF1000F1DD001F1600204EB45043444A4
:104D600043F82240CA0202F580622A43C0F8D441C7
:104D700042F40044C0F8D84101F17004D0F8D85191
:104D800043F824508031C0F8D821D0F8D82143F816
:104D900021200020BDE8F04102B070470120F9E772
:104DA00042F20210F6E700BF00E601000F2910B53D
:104DB00028D892B1144A01F1300452F82440C0F8C6
:104DC000D44101F1400452F82440C0F8D84101F127
:104DD000500452F82420C0F8D8218BB10A4B01F1BD
:104DE000600253F82220C0F8D42101F17002803112
:104DF00053F8222053F82130C0F8D821C0F8D83118
:104E0000002010BD0120FCE700E6010010B5274B93
:104E100027485A685A6842F001025A60D3F80822BB
:104E200042F48062C3F8082203F5B4331A680268BA
:104E300052BBD3F8402442F46752C3F840241D4AC1
:104E4000D2F80230DC05FBD41B4BD3F80427D10782
:104E5000FBD5D3F80427D207FBD4D3F84824174C4A
:104E6000174B21681A60930803F4F8530B43910021
:104E700001F07C0112020B4302F47832134343F039
:104E800081032360012303600C4B1A680A4BC3F8AB
:104E90004424084AD2F8023013F48073FAD1034A4A
:104EA000516863F30001516010BD00BF0038042455
:104EB000D0E501000000052400A00524D8E501008C
:104EC000D4E5010084B070B52DED028B82B008AC42
:104ED00084E80F00444C6E9AA2610D9A43499DF8F4
:104EE000B531BDF814012377013A8A4278D20DA971
:104EF0000122934209D8012B6FD19DF8B43173B1CF
:104F000001280FD942F2061060E00E4651F8045F06
:104F10003668B54264D8002D62D00132E9E7B0F5B9
:104F2000806FEFD2FFF722FA314B32485A689FED7B
:104F3000328A6FF38A225A60DA686FF31842DA60B5
:104F4000DA68042161F30902DA605A682B4942F4F5
:104F500080625A60FEF718FF294B5B686360FFF7B9
:104F600055FF03F0D5FB208103F0C6FB208203F040
:104F7000D5FBC0F30D0307EE103AB8EEC77A830BEA
:104F8000C7EE086A07EE903AF8EEE77A77EEA67A6F
:104F9000C4ED037A03F0B6FBC0F30D0307EE103A3D
:104FA000B8EEC77A830BC7EE086A01A807EE903AFD
:104FB000F8EEE77A002377EEA67A0193C4ED057A3E
:104FC00004F0D4F9003818BF0120404202B0BDEC13
:104FD000028BBDE8704004B07047013B0F2B90E797
:104FE00042F20410F2E700BFE0E50100A025260030
:104FF000003804243333334000007A44CDCC4C4095
:1050000038E0010084B010B52DED028B82B006AC03
:1050100084E80F009DF818300F2B7FD84249434C8D
:105020000B706C99A16106A901EB830140484969A5
:105030009DF8AD2122770139814271D2012A6AD1CE
:1050400006AA02EB43039DF8AC21B3F8F43022B179
:10505000012B05D942F2061056E0B3F5806FF9D264
:10506000FFF784F9334B34485A689FED348A6FF365
:105070008A225A60DA686FF31842DA60DA6804212B
:1050800061F30902DA605A682D4942F480625A607D
:10509000FEF77AFEFFF7BAFE2A4B5B68636003F007
:1050A00037FB208103F028FB208203F037FBC0F39D
:1050B0000D0307EE103AB8EEC77A830BC7EE086A05
:1050C00007EE903AF8EEE77A77EEA67AC4ED037A27
:1050D00003F018FBC0F30D0307EE103AB8EEC77AE1
:1050E000830BC7EE086A01A807EE903AF8EEE77A5C
:1050F000002377EEA67A0193C4ED057A04F036F921
:10510000003818BF0120404202B0BDEC028BBDE860
:10511000104004B07047013A0F2A9AE70120F3E7E4
:1051200042F20410F0E700BFDCE50100E0E5010019
:10513000A0252600003804243333334000007A448D
:10514000CDCC4C4038E001000F29024610B54FF09D
:1051500001000CD8D2F8CC4100FA01F32343D2F875
:10516000CC119BB263F30F01C2F8CC11002010BD2B
:105170000F29024610B54FF001000DD8D2F8CC41EE
:1051800000FA01F343EA1443D2F8CC119BB263F363
:105190001F41C2F8CC11002010BD30B50F299DF879
:1051A0000C402CD81F2A2AD80F2B28D8012C26D8FF
:1051B00045686D060FD5090134B14518AC6B44EA5A
:1051C000835343F08063AB6301448B6B43EA4243F8
:1051D0008B63002030BD5CB1D0F8081241F400713F
:1051E000C0F80812D0F8081263F34811C0F808128A
:1051F000D0F8083262F30403C0F80832E9E701206E
:10520000E8E7000029B9D0F8083261F3CB23C0F8F1
:105210000832064B5B68DB0741BF43686FF300034E
:105220004360002058BF4FF0FF307047003804241F
:10523000C1B2024882B002B0FFF7E4BF00380424D4
:105240000F2915D80D4B5A68520603D4D3F8DC3118
:10525000002B0FDAD0F8DC2101238B401343D0F868
:10526000DC219BB263F30F02C0F8DC210020704701
:10527000012070474FF40450704700BF00380424E9
:10528000B1F5007F14D2B2F5806F11D243686FF38D
:105290008A234360C36861F31843C360C36862F341
:1052A0000903C360436843F4806343600020704790
:1052B000012070470F2925D8012A05D1436A6FF3D1
:1052C000D753436200207047022A0BD1436A6FF321
:1052D00000034362436A6FF304134362436A6FF34C
:1052E000C303EEE7084BD3F8DC31002BEADA436A5C
:1052F0000122C3F3CF138A4023EA0201436A61F318
:10530000D613DEE701207047003804240F29034636
:105310004FF0010014D81A6A00FA01F189B2186A34
:10532000C2F30F220A4362F3172018621A6AC2F30B
:105330000F2222EA0102196A62F317211962002082
:105340007047000010B510B1012804D010BDBDE8B1
:105350001040FFF70BB84FF4006003F0D9F80A4A89
:1053600013786FF300031370DBB2002BEED1074B01
:1053700007484FF000729A64064B1B6ABDE8104064
:10538000DB6B0221184700BF30E9010000840424D0
:10539000001404240001300013B50D4BADF80400D7
:1053A0004FF40062C3F88020BFF34F8FBFF36F8FBD
:1053B00003220121002004F0ADF8044628B90120A1
:1053C000FFF7C0FF204602B010BD4FF0FF30FAE7F4
:1053D00000E100E04368064A61F349234360D2F8E4
:1053E000403443EA4143C2F840340020704700BFD4
:1053F00000A0052484B02DE9F04F2DED028BF1B013
:105400007CAC84E80F009DF8853365934FF4C4723B
:1054100001237FA9684669939DED818A9DF8845395
:1054200007F0CEFD94E80E006598BA4CFFF730F90E
:1054300005EE900AFFF714F994ED017A07EE900A51
:10544000B8EE476AF8EE677AB7EE007A87EE065A4A
:10545000C7EE276AC6EE857A17EE900AFEF758FF68
:1054600007EE900AFCEEE77A17EE903AC5EE857AE1
:105470009EB217EE900AFEF74BFF07EE900AFCEE85
:10548000E77A17EE903A9FB2BE4204BF0136B6B239
:10549000002D5ED1BDF8843327804FF4C27280A9FD
:1054A000684666809C4CADF8843107F089FD7CAB82
:1054B0000FCBFFF701F8FEF795FF3246394620463D
:1054C000FFF7DEFE01212046FFF784FF6368934E5D
:1054D000DFF8409243F000636360636843F0400389
:1054E0006360636865F3410363603323C4F8E431A8
:1054F000636843F004036360D4F8DC3143F0004395
:10550000C4F8DC310DF2E223669306F18103A8AF03
:1055100006F13E0B67930DF5F878659AEBB29A4267
:1055200000F28D807E4B6A9300227E4B6B9369A9BB
:10553000104603F053FF10B1452840F0E780699909
:105540006AAA002003F0B8FF003818BF01204042CB
:105550006EE0B8EE488A3946C6EE087A17EE900A31
:10556000FEF7D6FE07EE106A07EE900AB8EEC77A8D
:105570006948B4EEE77AF1EE10FA49BFFCEEE77A3B
:10558000324617EE903A9AB24DBF6280278066800D
:105590002780FFF775FE01215F48FFF71BFF5E4B79
:1055A0005A6842F000625A605A686FF386125A6075
:1055B0006A1E012A5A684FF0000194BF42F00202AD
:1055C00065F341025A60C3F8E4115A6842F00402DC
:1055D0005A60D3F8DC2161F3DF72C3F8DC219DF857
:1055E000F1219DF844029DF854125AB1D3F8086293
:1055F00062F34926C3F80862D3F8086261F34816DB
:10560000C3F80862444ED6F8083260F30403C6F8C3
:105610000832FFF78DF92A4600213046FFF74AFE8F
:1056200062886368B3FBF2F33F4A0020C2F880321D
:1056300071B0BDEC028BBDE8F04F04B0704798F834
:1056400054A098F86430649318F8013F6393009372
:1056500052462946649B2046FFF79FFD36F8021FFD
:10566000328C012A08D0AB0003F1105303F58723D5
:10567000A3F83811C3F8782129462046FFF7E0FD4A
:10568000DDE963215046FFF753F929462046FFF72D
:105690006FFD7B6E6C93D7F8A4306D93669B33F8E7
:1056A00002AF669340F20113ADF8BC31ADF8B8A17A
:1056B000ADF8BAA170AB13E90300DDE96C238DE806
:1056C000030029462046FFF701FB29462046FFF745
:1056D0003BFD002229462046FFF7ECFDB9F80220E9
:1056E000D9F80430B3FBF2F3328CB3FBF2F34BF88E
:1056F000043F57F8043FA6F8D0A0CBF85030679B82
:10570000639A03F8012F0135679306E74FF0FF30E6
:105710008EE700BFE0E50100003804243EE8010008
:105720003D5320084D53200800E6010084B02DE9C8
:10573000F04FEDB076AC84E80F009DF8D8419DF8AD
:105740006C639DF86DA301200F2C659000F212810F
:10575000DFF840828A4D88F800404FF4C47279A97E
:10576000684607F02DFC76AB0ECB5046FEF790FF57
:1057700005EE900AFEF774FF95ED017A07EE900AA8
:10578000B8EE476AF8EE677AB7EE007AC7EE276A96
:10579000C7EE067AC6EEA77A17EE900AFEF7B8FDB6
:1057A00007EE900AFCEEE77A17EE903A66EE257A5D
:1057B0009FB217EE900AFEF7ABFD07EE900AFCEEE3
:1057C000E77A17EE903A1FFA83F94F4504BF013785
:1057D000BFB2002E51D1BDF86C336A4C6F804FF4CC
:1057E000C2727AA96846A5F80090ADF8843107F036
:1057F000E7FB76AB0FCBFEF75FFEFEF7F3FD3A4615
:1058000049462046FFF73CFD01212046FFF7E2FD17
:1058100063685D4F43F000636360636843F0400377
:105820006360636866F3410363603323C4F8E43163
:10583000636843F004036360D4F8DC3143F0004351
:10584000C4F8DC31F3B29A4500F2A6804F4B669360
:1058500000224F4B679365A9104603F0BFFD10B1BE
:10586000452840F02A81659966AA002003F024FEAD
:10587000003818BF012040427CE076AB03EB840483
:10588000D4ED057AF8EE677A4946C6EE277A17EE28
:10589000900AFEF73DFD07EE107A07EE900AB8EE8B
:1058A000C77A3848B4EEE77AF1EE10FA49BFFCEE59
:1058B000E77A3A4617EE903A9AB24DBF6A80A5F859
:1058C00000906F80A5F80090FFF7DAFC01212D48C9
:1058D000FFF780FD2B4B5A6842F000625A605A680D
:1058E0006FF386125A60721E012A5A684FF0000147
:1058F00094BF42F0020266F341025A60C3F8E41119
:105900005A6842F004025A60D3F8DC2161F3DF7276
:10591000C3F8DC2198F8002002F5EC726A4492F892
:10592000540092F8641052785AB1D3F8084262F3E6
:105930004924C3F80842D3F8084261F34814C3F875
:105940000842104FD7F8083260F30403C7F8083252
:10595000FEF7EEFF98F80040324621463846FFF742
:10596000A9FCA0346A886B68B3FBF2F3064A42F8DC
:10597000243000206DB0BDE8F04F04B0704700BF88
:10598000E0E501000038042400E601003D53200852
:105990004D532008DCE5010098F80010639101F5F3
:1059A000EC736B44204693F8642093F8549093F87A
:1059B00001B062921346CDF800B04A46FFF7EDFB06
:1059C000639901F5907337F8130001F5987337F870
:1059D0001320012A08D08B0003F1105303F587230D
:1059E000A3F83801C3F878212046FFF729FC5A466E
:1059F00062994846FEF79CFF98F800902046494679
:105A0000FFF7B6FB76AB03EB89030136D3F814310D
:105A1000689376AB03EB8903D3F85431699376AB83
:105A200003EB4903B3F8F430ADF8A831ADF8AA316F
:105A300040F20113ADF8AC316CAB13E90300DDE9C2
:105A400068238DE8030049462046FFF73FF998F8A0
:105A5000009020464946FFF777FB49460022204642
:105A6000FFF728FC09F1A00269886B68B3FBF1F32A
:105A700009F5987137F81110B3FBF1F347F82230AC
:105A800076AA02EB490209F5C473B2F8F42027F8AC
:105A9000132076AA02EB890209F1B403D2F8B420EC
:105AA00047F8232009F5EC7207EB09030DEB020917
:105AB00099F8012083F8C022C4E64FF0FF3059E77F
:105AC000D0F8E03143F00103C0F8E0310020704726
:105AD0002DE9F341374B9A6A0192019A16020DD5CE
:105AE000426A1502C2F3C05008D45A6A42F4000256
:105AF0005A62314B9B690421984718E0019BDC07EF
:105B000009D52C4A136A43F0010313622A4B05217D
:105B10009B690020F0E7019C14F080740BD02548AD
:105B2000012100F095F8254B02201B6898470020C2
:105B300002B0BDE8F0811F4B5A68500603D4D3F879
:105B4000DC21002A25DA1E4D1A4FDFF86C80019BFC
:105B5000E21DD340D90716D521463846FFF7D6FBBC
:105B60002B78E6B2B3FA83F2520931463846FFF792
:105B70001DF9D8F818300021304698472B78B3FA31
:105B800083F35B092B700134102C05F10105DED184
:105B9000CDE75A689207CAD4D3F8DC11C90FC6D131
:105BA0005A6842F004025A600198034BC0B29B69E4
:105BB000A2E700BF00380424E0E5010034E9010059
:105BC000C0E501000148FFF783BF00BF003804248F
:105BD000030548BF20F40060174B58BF40F4006035
:105BE000D1B11A8A93ED057A821A07EE902AF8EE5F
:105BF000E77A67EE877AFDEEE77A17EE903A18B209
:105C0000B0F5805F11DA002812DDB0F5006F10DB0F
:105C1000A0F5006000B270471A8993ED037A821AEA
:105C200007EE902AF8EEE77AE3E740F6FF70EFE739
:105C3000002000F50060EDE7E0E50100406921B1DA
:105C40001146C0F30B00FFF7C3BFC0F30B00704752
:105C5000436A01291DBF43F002034362436A43F0D4
:105C6000807318BF43F004034362002070470000B4
:105C700010B4034C24686468A4465DF8044B604784
:105C80000001300010B4034C2468646CA4465DF835
:105C9000044B604700013000024B1B68D3F8B8305A
:105CA000184700BF00013000024B1B68D3F8C0301A
:105CB000184700BF00013000024B1B68D3F8C83002
:105CC000184700BF00013000024B1B68D3F8E830D2
:105CD000184700BF000130000828034B8CBF022288
:105CE00001221A70704700BF38E9010073B59B4B61
:105CF00010229A600B69DD7915F001050C4640F021
:105D00003C819D809D7118601C2229466069944EDB
:105D100007F0A8F823690122DA71F3694FF0806176
:105D2000D3F880304FF08C409847F36994F83010E6
:105D3000D3F8D4304FF08C4098472268894B9A4270
:105D400040F0F980A36958783F280CD94038C0B298
:105D5000FFF7BAFFA36984485A78403A0623D2B2C3
:105D60002946FFF78FFFA369D87808B1FFF79CFF9A
:105D7000A3695878A0F11903052B01D8FFF78CFF10
:105D8000A3695878FFF798FFA16978488B784A781B
:105D90000978FFF777FFE3693BB358783F280CD9C0
:105DA0004038C0B2FFF790FFE3696F485A78403A35
:105DB0000623D2B20021FFF765FFE369D87808B166
:105DC000FFF772FFE3695878A0F11903052B01D89A
:105DD000FFF762FFE3695878FFF76EFFE1696348F8
:105DE0008B784A780978FFF74DFF236A3BB35878E0
:105DF0003F280CD94038C0B2FFF766FF236A5A48E3
:105E00005A78403A0623D2B20021FFF73BFF236ABB
:105E1000D87808B1FFF748FF236A5878A0F1190332
:105E2000052B01D8FFF738FF236A5878FFF744FFA6
:105E3000216A4E488B784A780978FFF723FF636A16
:105E40003BB358783F280CD94038C0B2FFF73CFF2D
:105E5000636A45485A78403A0623D2B20021FFF7D8
:105E600011FF636AD87808B1FFF71EFF636A58789C
:105E7000A0F11903052B01D8FFF70EFF636A5878CC
:105E8000FFF71AFF616A39488B784A780978FFF77B
:105E9000F9FEA36A58783F280CD94038C0B2FFF702
:105EA00013FFA36A30485A78403A0623D2B2002141
:105EB000FFF7E8FEA36AD87808B1FFF7F5FEA36AFA
:105EC0005878A0F11903052B01D8FFF7E5FEA36A66
:105ED0005878FFF7F1FEA16A24488B784A78097850
:105EE000FFF7D0FEE36A58783F280CD94038C0B29B
:105EF000FFF7EAFEE36A1C485A78403A0623D2B21A
:105F00000021FFF7BFFEE36AD87808B1FFF7CCFEA7
:105F1000E36A5878A0F11903052B01D8FFF7BCFEFE
:105F2000E36A5878FFF7C8FEE16A10488B784A7830
:105F30000978FFF7A7FEE3680BB9A368D3B122681D
:105F4000084B9A4216D1002301A8019303F00EFAE0
:105F500070B14FF0FF3002B070BD00BF0084042468
:105F6000000130000000034500C004240000134677
:105F700003F08AFC23690122DA710020EBE700BFFD
:105F80000369002210B5DA71836804460BB9C06852
:105F9000A8B122680D4B9A4212D1E368197F0322FF
:105FA0000131002003F0B6FA60B9A368197F03221B
:105FB000013103F0AFFA003818BF0120404210BD94
:105FC0000020FCE74FF0FF30F9E700BF0000034579
:105FD00038B50C4620B1022835D06FF0030038BD2B
:105FE00091F90430002B0DDB5A09012103F01F0346
:105FF000994002F12003274A42F82310BFF34F8F44
:10600000BFF36F8F236900229A809A7194F904304C
:10601000934209DB5A09012103F01F03994002F161
:1060200060031C4A42F823101C226069002106F01C
:1060300019FF2269D37923F00203D371164B102282
:10604000DA600020CBE70A69D379D9071ED513F0AF
:106050000200F6D12568696843F0020341F400614B
:10606000696090809071D37194F90430002BE8DB63
:1060700003F01F015B099B0003F1604303F56143DB
:1060800001228A40C3F880211A60DAE74FF0FF301E
:10609000A5E700BF00E100E0008404242DE9F84FEB
:1060A00003681A69C2F340091A69DF69DE69C2F33D
:1060B000C038504A11696FF30001044607F00F071A
:1060C000C6F303161161156A15F48065FBD193427E
:1060D0003BD1E169002938D0DFF824A14A78DAF809
:1060E00000300978D3F800B043482B46D847E1691F
:1060F00041484A7809780123FFF7BAFDE1693E4833
:106100004A7809782B46FFF7BDFDE1694A783F2AB6
:106110001BD9403A097839482B46D2B2FFF7B2FD75
:10612000E169DAF800304A78D3F800A009783348FA
:10613000403A2B46D2B2D047E16930484A780978D4
:10614000403A0123D2B2FFF793FD23681A6942F067
:1061500002021A611A6942F400421A61DA690121E5
:1061600061F30302DA61DA690C2161F30712DA6183
:106170009A6A42F001029A6245F6A522C3F880208D
:1061800023681A6AD007FCD4D3F880205A6A42F0F8
:1061900001025A62174A116941F001011161116A45
:1061A0004905FCD5934212D1E16981B14A788B78D7
:1061B00011480978FFF766FDE1694A783F2A06D958
:1061C000403A8B780D480978D2B2FFF75BFD23681F
:1061D0001A6969F341021A611A6968F3CF321A61C8
:1061E000DA6967F30302DA61DA6966F30712DA61E2
:1061F000BDE8F88F000003450000134600C00424EA
:1062000000013000F8B515699DF8186095F807C0D1
:106210001CF0020F0746144600F05B811268DFF89D
:10622000D4E27245C0B202D1022800F0498114289C
:1062300009D11C226069002106F014FE23690022A6
:106240001A7100206BE095F804E0BEF1000F40F0F9
:106250003A81132843D8DFE810F014001D003901FB
:10626000390139014200420042004200420042002E
:1062700042004200420042004200270060006300EA
:106280006600AB682CF0040C23F0FF03AB6085F8CC
:1062900007C0D6E7A86820F0FF0040F001004CF0EE
:1062A000040CA86085F807C08D48814233D8B3FB41
:1062B000F1F35B0807D1106840F00200106010682D
:1062C00040F0010010608748814203D9516841F0D5
:1062D00001015160916BDBB263F307019163AA681E
:1062E000D3B2012B0CD107F4C013B3F5801F00F01B
:1062F000BD8072D8002B79D0B3F5002F00F08180DB
:1063000017F4E06100F0C380B1F5407F00F0D28067
:106310006FF0070003E00123D8E7906BC0B2F8BD2F
:10632000636919838DE7AB68D8B2012840F0D1804A
:1063300003F4C01359BBB3F5801F0BD1136966F387
:106340004E331361136943F001031361136A590556
:10635000FCD576E7012E07D0022E07D00EB9E369EF
:1063600033B96FF00400DAE7236AF9E7636AF7E705
:106370005A785D4801230021FFF77AFC23681A69E7
:106380006FF300021A611A6A5205FCD459E7B3F59B
:10639000801F0BD1136966F34E33136113696FF3DA
:1063A00000031361136A5B05FCD44AE7012E0DD08C
:1063B000022E0DD0002ED4D1E369002BD1D05A7813
:1063C000494800231946FFF753FC3AE7236AF4E7EC
:1063D000236A002BC5D0636AF1E7B3F5C01F8FD1E4
:1063E00022F4C012AA606FF00A0098E71A46194614
:1063F0003D48FFF747FC2269936823F4C01393607C
:106400007EE7012E2ED0022E2ED0002EA9D1E369D8
:10641000002BA6D0D8785D7808B1FFF745FC3F2D5A
:1064200007D9A5F1400231480623D2B20021FFF777
:1064300029FC002319462C482A46FFF723FC2C4B45
:1064400029481B681E68002319462A46B0470123C5
:106450002A4625480021FFF70BFC2269936843F484
:106460000023CCE7236AD3E7636AD1E7E36922F428
:10647000C012AA605B7833B9236A5B781BB9636A80
:106480005B78002BAFD042F48012AA6038E7236813
:106490005A6861F341025A6023685A69C7F30537A5
:1064A00022F01002102F5A6116D89A6967F303027E
:1064B0009A61C6E62268536843F002035360EBE733
:1064C0006FF003002BE76FF0010028E76FF0060084
:1064D00025E74FF0FF3022E76FF008001FE700BF0D
:1064E00080778E06005A62020000134600C0042422
:1064F0000001300000000345F0B584468BB014461F
:10650000002800F0A480002900F0A1801369DA7946
:10651000520740F199801879002840F09B800127AC
:106520009F8098716369C3E903005860C3F808C08D
:1065300023689D691A6942F002021A619A6942F061
:1065400080029A611A6960F3CF321A61E66815F029
:106550000F0508BF1025002E45D0626BDF6992F849
:1065600003E06EF30307DF619778DA6967F30712D8
:10657000DA61327F394F8DF82700082D02F10102D0
:1065800003F1800394BF0025012500923268049333
:106590000323CDE9063540F201130197ADF824300D
:1065A0002F4F736908916946CDE9027C05958DF8F6
:1065B000263002F013FF08B1452845D1009901AA01
:1065C000002002F079FF00283ED1009903AA02F0D2
:1065D000E5FF002838D1E368197F013103F036F96F
:1065E00000200BB0F0BD2846FFF776FB1D4B62691B
:1065F0001878236841431160D96967F30301D961B1
:10660000D9690C2565F30711D961996A012841F010
:10661000010199620BD1116990684D1C1561425CB2
:10662000C3F880202268136ADB07FCD4D8E702286D
:10663000F8D1116996684D1C1561705C02311161C9
:10664000725D40EA0222EBE74FF0FF30C9E76FF0DE
:106650000400C6E76FF00100C3E700BFDD4A200871
:10666000FD4A200838E901002DE9F0418CB045F6DB
:10667000A5270E4614460197002800F0E88000295F
:1066800000F0E5801269D379590740F1BB80137996
:10669000002B40F0DF804FF00108A2F804809371D6
:1066A0006269C2E90103C2E9033323689D691A697B
:1066B00042F002021A619A6942F080029A611A69F4
:1066C00042F400421A61D4E9022115F00F0508BF17
:1066D0001025002A40F08880002900F09680626B27
:1066E000D869D77867F30300D8619078DA6960F3E6
:1066F0000712DA6100208DF82F000A7FDFF864812D
:10670000564F0132082D029203F180030A68069366
:1067100094BF002501250323CDE9083540F201137C
:10672000ADF82C304B69CDF80C800DF1040C02A9AA
:106730000497CDF814C007950A968DF82E3002F014
:106740004DFE08B145285DD1029903AA002002F050
:10675000B3FE002856D1029905AA02F01FFF0028B7
:1067600050D1A368002B4DD08DF82F001A7F2168DF
:106770000132029280311A68059161694968069177
:106780000321CDE907154FF48171ADF82C105B6939
:106790008DF82E3002A9CDE90387CDE9095602F024
:1067A0001DFE08B145282DD1029903AA002002F050
:1067B00083FE38BB029905AA02F0F0FE054608BB2D
:1067C0002268136943F004031361E368197F013100
:1067D00003F03CF8A368197F2846013103F036F82E
:1067E00000200CB0BDE8F081626BD869D77867F300
:1067F0000300D8619078DA6960F30712DA61002942
:106800007FF478AF4FF0FF30EBE72846FFF764FAEC
:10681000134B1A78636956431E602368D96968F37D
:106820000301D961D9690C2060F30711D961996A14
:10683000012A41F00101996202D1C3F8807001E0A0
:10684000022AFAD02268136ADB07FCD4C8E76FF08B
:106850000400C6E76FF00100C3E700BFFD4A20084F
:1068600038E90100DD4A20082DE9F04116468AB0DA
:106870001C460746002800F0FD80002900F0FA8041
:10688000002A00F0F7801B69DA79520764D51A797B
:10689000002A40F0F2804FF001089A71A3F80480BA
:1068A0006369C3E90322C3E9011023689D691A697A
:1068B00042F002021A619A6942F080029A611A69F2
:1068C00042F400421A61D4E9022115F00F0508BF15
:1068D0001025002A43D1002900F09B80626BD86903
:1068E00092F803C06CF30300D8619078DA6960F322
:1068F0000712DA6100208DF827000A7FDFF880C1D7
:10690000013200920A68CDF804C0DFF878C1089619
:106910008033082D0493CDE902C794BF00230123DF
:106920000327CDE90673059340F20113ADF8243037
:106930004B698DF82630694602F050FD08B14528B4
:106940000AD1009901AA002002F0B6FD20B90099F1
:1069500003AA02F023FE80B14FF0FF3056E0626BD5
:10696000D86992F803C06CF30300D8619078DA69B3
:1069700060F30712DA610029BCD1A368002B44D070
:1069800000208DF827001A7F3D49013200921A68D5
:1069900001913C4902912168803103916169496804
:1069A0000491032105914FF48171082DADF8241055
:1069B00094BF002501255B6908966946CDE9065517
:1069C0008DF8263002F00AFD08B14528C4D100999F
:1069D00001AA002002F070FD0028BDD1009903AA91
:1069E00002F0DCFD05460028B6D12268136943F0A9
:1069F00004031361A368197F013102F027FFE368E4
:106A0000197F2846013102F021FF00200AB0BDE8BD
:106A1000F0812846FFF760F91B4B61691A782368FB
:106A200056430E60D86968F30300D861D8690C2515
:106A300065F30710D861986A012A40F00100986256
:106A40000BD10A698868551C0D61825CC3F88020EF
