S018000073693931785F68656C6C6F5F776F726C642E73333724
S31500000000010000000D900D90DC8C01000100000045
S3150000001000102000A2088B7A0000000000000000FB
S3150000002000000000000000000000000000000000CA
S315000000300000000000000000000000000D900D9080
S31500000040A55A0000002020080000008000000000E3
S31500000050000000000000000000000000000000009A
S31500000060000000000000000000000000000000008A
S31500000070000000000000000000000000000000007A
S31500000080000000000000000000000000000000006A
S31500001000E0200200C54F2008794F2008794F2008BC
S31500001010794F2008794F2008794F200800000000FA
S31500001020000000000000000000000000C14420088D
S31500001030794F2008000000001145200827302008BD
S31500001040794F2008794F2008794F2008794F2008DA
S31500001050794F2008794F2008794F2008794F2008CA
S31500001060794F2008794F2008BD0500008D792008AA
S31500001070055B200801C42008794F2008794F200815
S31500001080794F2008794F200875B9200819BA200829
S31500001090794F20080DB92008794F2008794F20088C
S315000010A0794F2008794F2008794F2008794F20087A
S315000010B0794F2008794F2008E0200200794F200858
S315000010C0C54F20081505000051B02008794F2008AB
S315000010D0794F2008794F2008ED5A2008F95A200840
S315000010E0F54E2008794F2008E9C32008938DA96999
S315000010F0794F2008794F200841582008794F200859
S31500001100794F2008794F2008DDB82008F5B8200867
S315000011101DB8200835B820084DB8200865B8200845
S315000011207DB8200895B82008ADB82008C5B82008B5
S31500001130794F2008F5C32008794F2008794F2008F9
S31500001140794F2008794F2008794F2008794F2008D9
S31500001150794F2008794F2008794F2008794F2008C9
S31500001160794F2008794F2008794F200800000000A9
S315000011700000000000000000000000000000000069
S315000011800348044B834202D0034B03B11847704710
S31500001190701A0000701A0000000000000548064B97
S315000011A01B1AD90F01EBA301491002D0034B03B15F
S315000011B018477047701A0000701A000000000000FF
S315000011C010B5064C237843B9FFF7DAFF044B13B189
S315000011D00448AFF300800123237010BD701A00008D
S315000011E000000000207B210808B5054B1BB105490E
S315000011F00548AFF30080BDE80840FFF7CFBF00BF4A
S3150000120000000000741A0000207B210808B500F0D9
S315000012101DFE00F0D7F900F01BFE00F0A3FB00F066
S315000012204BFE00F05FF900F049FC00F0FBF800F01F
S3150000123047F847F230520749074802F0C9FC014611
S3150000124006480BF05DFD06480BF0C2FDBDE8084000
S3150000125000F014B8280121088C1A000060FF20084D
S3150000126066FF2008704708B5FFF7D0FF00F0C4FE00
S3150000127000B908BDFFF7F6FFF8E7000008B50A4A0F
S315000012800A48002100F02AFF60B1094A09480021F6
S3150000129000F024FF30B1BDE80840074A07480021A6
S315000012A000F01CBF08BD00BFD0FF20084D25200858
S315000012B0ACFF20083D24200888FF2008F1232008E1
S315000012C0002208B51146054800F0A9FC0022114687
S315000012D0012001F004F8024B186008BD110000005F
S315000012E0C88F00002DE9F0413A4C3B4D3B4EDFF8EC
S315000012F0FC803B4F0123237000232B703749404667
S3150000130000F04EFD2378012B06D133788BB900F01F
S31500001310D9FE386002230BE0023B032B09D8DFE835
S3150000132003F0020C113033780BB1012300E00323E4
S315000013302370142000F041FFE0E73378002BF8D04B
S315000013400423F5E73378002BF1D000F0BBFE3A68B2
S31500001350244B3860821A1A602B7840F6B7315BB19D
S315000013608A4206D80133DBB2012B2B7013D8052332
S31500001370DEE700232B70D8E78A420CD801232B70B6
S31500001380F5E73378002BC5D000F09CFE3B6803F5EB
S3150000139096739842CDD32B7863B1012B03D0022BE1
S315000013A005D0BDE8F081104B00221A70F9E70E4B0C
S315000013B00122FAE70B4B1A6842F20F739A420A4B64
S315000013C001D90422F1E741F287318A428CBF032218
S315000013D00222EAE710000000C58F0000C48F00005B
S315000013E0C08F0000BC8F0000C68F000011000000F7
S315000013F007B5094E094D0A4CFFF774FF306800F037
S31500001400F1FF2B788DF80730002320681A460DF17E
S31500001410070101F053F8EFE7C88F0000C68F000000
S31500001420CC8F000008B5002201210A2001F006F841
S31500001430014B186008BD00BFCC8F000007B5244ED5
S31500001440244C30680DF107014FF0FF33002201F004
S315000014506DF89DF80710012920D0022922D0002915
S31500001460EFD11D4B1A78002AEBD023781B480133A5
S31500001470DBB29A4288BF194621700BF041FC2078F6
S315000014801749043047F23052C00300F042FAC82030
S3150000149000F093FE124800F073FBD2E7084600F016
S315000014A07FFBCEE70C4D0E4800F06AFB287804302F
S315000014B0C00300F0B0F928780949043047F23052E9
S315000014C0C00300F0E8F92B7823705A1C2A70B8E79D
S315000014D0CC8F0000D08F0000D18F0000F4FF2008D1
S315000014E0D28F000013B50C4B009300246846ADF86C
S315000014F0044000F077F8094B00936846ADF80440C5
S3150000150000F070F801212246084600F0E8FE044B80
S31500001510186002B010BD00BF030100010101000107
S3150000152004050100FF220321012000F027B9002253
S315000015300321012000F022B90121FF22084600F014
S315000015401DB901210022084600F018B908B50D4C56
S315000015500D4D20684FF0FF3100F012FF2B78032B62
S31500001560F7D8DFE803F00205080BFFF7E5FFF0E721
S31500001570FFF7E7FFEDE7FFF7D5FFEAE7FFF7D7FF4E
S31500001580E7E700BFC88F0000C68F000070477047AE
S315000015907047704708B503F09DF807F011FCBDE8E9
S315000015A0084002F06DBE704700F070BD00F004B850
S315000015B07047704770470000014809F083BE00BFBE
S315000015C014000000064B00221A700F219A70DA7080
S315000015D01A715A71FF2259709A71DA71704700BFF9
S315000015E008050100F7B5037801279F4043780446B4
S315000015F0FEB2002B58D102794D4D012AAB7844D169
S315000016003343AB7004238DF804300222AB788DF897
S31500001610053001A9592000F031FC002833D1A27809
S31500001620AB79012A36D13343AB7112238DF80430DE
S315000016300222AB798DF8053001A9592000F01EFC75
S3150000164008BBE2782B79012A29D133432B71062373
S315000016508DF804302B798DF80530022201A9592026
S3150000166000F00CFC78B96178324B227803EBC103A9
S3150000167059209B5C8DF80430022263798DF8053081
S3150000168001A900F0FBFB03B0F0BD002ABAD123EAA2
S315000016900703B6E7002AC8D123EA0703C4E7002AEE
S315000016A0D5D123EA0703D1E7012BDCD10279204DFE
S315000016B0012AEB782CD13343EB7005238DF80430E7
S315000016C00222EB788DF8053001A9592000F0D6FBEF
S315000016D00028D8D1A278EB79012A1ED13343EB71C9
S315000016E013238DF804300222EB798DF8053001A919
S315000016F0592000F0C3FB0028C5D1E2786B79012A96
S3150000170010D11E436E7107238DF804306B79A2E762
S31500001710002AD2D123EA0703CEE7002AE0D123EA42
S315000017200703DCE7002AEED123EA07036B71EAE739
S315000017300805010028000000012307B503FA01F19E
S31500001740C9B280B90C4B1A781143197002238DF86F
S3150000175004308DF80510022201A9592000F08EFBF5
S3150000176003B05DF804FB0128F5D1034B5A78114309
S3150000177059700323EBE700BF0805010007B5084BC6
S315000017808DF8052003EBC00302225B5C8DF8043064
S3150000179001A9592000F072FB03B05DF804FB00BFFD
S315000017A02800000013B50523044603208DF80730F2
S315000017B000F072FB0DF107010122032000F0B2FBDD
S315000017C001222146032000F0B3FB032000F06CFB4E
S315000017D002B010BD07B50DF10700FFF7E3FF9DF856
S315000017E00730DB07F7D403B05DF804FB07B5062323
S315000017F003208DF8073000F04FFB01220DF10701A1
S31500001800032000F08FFB032000F04EFBFFF7E2FF02
S3150000181003B05DF804FB07B552238DF80430030CC2
S3150000182040BA8DF80530ADF80600FFF7DFFF03205C
S3150000183000F032FB04220DEB0201032000F072FBE4
S31500001840032000F031FBFFF7C5FF03B05DF804FB92
S3150000185037B502238DF80430030C40BA8DF80530F5
S315000018600C461546ADF80600FFF7C0FF032000F052
S3150000187013FB04220DEB0201032000F053FB2A4662
S315000018802146032000F04EFB032000F00DFBFFF77E
S31500001890A1FF03B030BD2DE9F04106468846154646
S315000018A000270DB9BDE8F081F4B2C4F58074A4B286
S315000018B0AC4208EB070105D92A463046BDE8F0419F
S315000018C0FFF7C6BF30462246FFF7C2FF274426442D
S315000018D02D1BE6E773B5030C032440BAADF80600EA
S315000018E020468DF805300D4616468DF8044000F06A
S315000018F0D3FA04220DEB0201204600F013FB324618
S315000019002946204600F014FB204600F0CDFA02B02E
S3150000191070BD2DE9F04106468846154600270DB9EB
S31500001920BDE8F081F4B2C4F58074A4B2AC4208EB11
S31500001930070105D92A463046BDE8F041FFF7CABF80
S3150000194030462246FFF7C6FF274426442D1BE6E70E
S3150000195004210120FFF7F0BE014800F0CDB900BF19
S315000019603800000007B500220A48114600F057F972
S3150000197060B9FFF7F1FF48B9074BADF804006846B8
S315000019800093FFF72FFE08B9FFF7E2FF03B05DF8FB
S3150000199004FB00BF3800000004010101002208B565
S315000019A00B48114600F03BF980B90246014609484A
S315000019B000F035F950B902460146074800F02FF904
S315000019C020B9BDE80840034800F096B908BD00BF3D
S315000019D0410000003E0000003B00000013B5064C2D
S315000019E00DF10701204600F0DBF918B99DF8073024
S315000019F0002BF5D002B010BD3B00000008B508482A
S31500001A0000F026F950B90A2000F0D7FB044800F090
S31500001A1073F918B9BDE80840FFF7E0BF08BD00BF7D
S31500001A203E00000013B58DF807000A4800F010F9D3
S31500001A30044658B900F030FA204601220DF107019C
S31500001A4000F070FA0446002000F02EFA204602B09C
S31500001A5010BD00BF4100000013B58DF807000A480D
S31500001A6000F04AF9044658B900F016FA2046012259
S31500001A700DF1070100F056FA0446002000F014FAB2
S31500001A80204602B010BD00BF4100000070B50546FB
S31500001A9009480E4600F030F9044650B900F0FCF94A
S31500001AA020463246294600F03DFA0446002000F062
S31500001AB0FBF9204670BD00BF4100000008B5FFF7E6
S31500001AC06DFF034688BBFFF799FF034668BBFFF728
S31500001AD0A9FF034648BBFFF781FF034628BB2F201B
S31500001AE0FFF7BAFF034600BB2920FFF7B5FF034601
S31500001AF0D8B95020FFF796FF0346B0B9FFF76EFF3F
S31500001B00034690B93720FFF7A7FF034668B9E920D7
S31500001B10FFF788FF034640B9FFF760FF034620B989
S31500001B20BDE808400120FFF797BF184608BD08B575
S31500001B300420FFF777FF18B9BDE80840FFF74EBF4E
S31500001B4008BD08B50220FFF76DFF034638B9FFF759
S31500001B5083FF034618B9BDE80840FFF73FBF1846A4
S31500001B6008BD08B5FFF7E3FF1220FFF75BFF002073
S31500001B70FFF772FFFFF732FFBDE80840FFF7E1BF4E
S31500001B8010B504461020FFF74DFFFFF727FF20464C
S31500001B9047F23051FFF77AFFBDE81040FFF7E1BF8B
S31500001BA038B505461020FFF73DFFFFF717FF47F250
S31500001BB03054032D06D8DFE805F0020D0F11002082
S31500001BC0FFF74AFF013CA4B2002CF2D1BDE8384031
S31500001BD0FFF7C7BF5520F3E7AA20F1E7FF20EFE79D
S31500001BE00378052B17D840781BB9392815D908F082
S31500001BF031BF5A1E012A05D9032B08D0042B08D061
S31500001C00062800E0102834BF0020212070470A284B
S31500001C10F9E70C28F7E7212070471846704770B59A
S31500001C200378164642780446807843EA022343EA5C
S31500001C3000400D4608F052FF48B93146607808F07A
S31500001C4046FD60782946BDE8704008F04BBD70BD82
S31500001C5070B50446002849D0FFF7C2FF054680BB91
S31500001C6026786478052E0AD921484FF4CE7109F0FA
S31500001C7049FD1F484FF4D27109F044FD2FE0032EB1
S31500001C800ED9042E29D10B2C04D9194840F2A111E2
S31500001C9009F038FD240104F1105404F598240EE0EF
S31500001CA08EB94B2C04D912484FF4CF7109F02AFD96
S31500001CB004EB0614240104F18C4404F59814002363
S31500001CC06360284670BD012E01D13B2CEAE7022E47
S31500001CD001D12B2CE6E71B2CE4E7052CC9D8054BD4
S31500001CE0A4001A596FF345121A51EAE72225E8E7CC
S31500001CF0030021081C86042470B50446002849D038
S31500001D00FFF76EFF054680BB26786478052E0AD954
S31500001D1021484FF49B7109F0F5FC1F484FF49F7161
S31500001D2009F0F0FC2FE0032E0ED9042E29D10B2C3E
S31500001D3004D9194840F23B1109F0E4FC240104F1EE
S31500001D40105404F598240EE08EB94B2C04D9124891
S31500001D504FF49C7109F0D6FC04EB0614240104F13F
S31500001D608C4404F5981401236360284670BD012E47
S31500001D7001D13B2CEAE7022E01D12B2CE6E71B2CE6
S31500001D80E4E7052CC9D8054BA4001A5942F02002F5
S31500001D901A51EAE72225E8E7030021081C860424F5
S31500001DA0F8B50E460446002849D0FFF719FF054648
S31500001DB088BB27786478052F0AD9224840F2D911C2
S31500001DC009F0A0FC1F4840F2E11109F09BFC30E04D
S31500001DD0032F0ED9042F2AD10B2C04D919484FF4FE
S31500001DE0EF7109F08FFC240104F1105404F59824D6
S31500001DF00EE097B94B2C04D9124840F2DB1109F0DA
S31500001E0081FC04EB0714240104F18C4404F59814B6
S31500001E106368DBB233702846F8BD012F01D13B2C35
S31500001E20E9E7022F01D12B2CE5E71B2CE3E7052C74
S31500001E30C8D8054B5B69E34003F00103EAE72225B6
S31500001E40E9E700BF030021080000081208F098BC6B
S31500001E5008B50949002009F0FDF8024648B90146CF
S31500001E6009F098F9024620B9BDE80840014609F094
S31500001E701DBA104608BD00BF2000000013460A46E2
S31500001E800146002009F0A0B9012804BF014B1870D3
S31500001E90704700BF44000000024B53F82000FFF7D4
S31500001EA0D7BE00BFC0002108024B53F82000FFF741
S31500001EB023BF00BFC000210870B5174E00250022C1
S31500001EC056F8040B1146FFF7AAFE0446F8B9013589
S31500001ED0EDB2042DF3D1E0B2FFF7E6FFC8B9013445
S31500001EE0042CF8D10D4D294608F060FF044670B960
S31500001EF00146286808F07EFF044640B9084928686C
S31500001F0008F0FAFF044610B9022002F093FC2046BE
S31500001F1070BD0446FBE700BFC000210810050100A4
S31500001F20892E2008014B186808F0CABF1005010069
S31500001F30014B186808F0A6BF1005010008B500F0AF
S31500001F4012F800F057F8FEE77047704708B5FFF73C
S31500001F5021FBFFF72BFBFFF72BFBFFF72AFBBDE867
S31500001F600840FFF727BB08B5FFF7EEFF02F036F88B
S31500001F70FFF7EBFF00F064F800F009F8FFF713FB3A
S31500001F8000F01EF8BDE80840FFF7E0BF704708B54F
S31500001F90FFF7FCFAFFF7FBFAFFF7FAFAFFF7F9FA91
S31500001FA0FFF7F4FF08BD000008B5FFF75CF9034B27
S31500001FB01868BDE8084000F0E6B800BF1405010047
S31500001FC030B5094D0FCD8BB001AC0FC40FCD0FC48A
S31500001FD02B680648236001AA002100F07FF8044B15
S31500001FE018600BB030BD00BFD0002108A92F200813
S31500001FF014050100FFF7D8BA0020704710B5EFF3BB
S31500002000058414B10124204610BD0CF089FF012877
S31500002010F9D0EFF31083002BF4D1EFF31184003CD9
S3150000202018BF0124EFE708B54FF0E0231B690CF059
S3150000203077FF012803D0BDE8084001F00FBB08BDBB
S3150000204008B5FFF7DBFF48B90CF06AFF0128034625
S3150000205007D1054A106820B9136008BD6FF0050066
S31500002060FBE74FF0FF30F8E70812010008B50CF067
S3150000207057FF38B1022804D0034B1868431E584254
S31500002080584108BD0320FCE70812010010B5FFF710
S31500002090B5FF044668B90CF043FF01280CD1084B84
S315000020A01A68012A08D102221A600CF0F9FE2046AD
S315000020B010BD6FF00500FBE74FF0FF30F8E700BFFB
S315000020C00812010008B5FFF799FF18B1BDE80840EE
S315000020D00CF022BFBDE808400CF032BF2DE9F041FC
S315000020E086B0002305460E4690460593FFF786FF09
S315000020F000BBFDB1B8F1000F3ED0D8F818402CB1A6
S31500002100631E372B03D906B0BDE8F0811824D8F832
S315000021100430DB0735D4D8F814306BB19A08D8E907
S315000021200270D8F8001057B1772803D9D8F81000F4
S3150000213000B1BBB90598E6E74FF48072EFE70028D7
S31500002140F8D1D8F81030002BF4D105AB013C01933F
S315000021500094334628460CF0EBFE01281CBF0023F2
S315000021600593E7E7013CCDE901070094334628468D
S315000021700CF0AEFE0590DDE7414618244FF4807260
S31500002180E3E70020BFE738B50546FFF737FF04460B
S3150000219050B965B128460CF08BFE04280AD02846B3
S315000021A00CF0DAFE204638BD6FF00500FBE76FF055
S315000021B00300F8E76FF00200F5E710B50446FFF7F5
S315000021C01DFF28B914B120460CF06EFE002010BD8C
S315000021D06FF00500FBE738B50546FFF70FFF10B1B6
S315000021E00024204638BD25B9BDE83840012000F05E
S315000021F092BC6B681A07F3D4D5E9021203F0010307
S3150000220079B14F2AECD99BB1042000F050FC04466A
S315000022100028E5D0296809B100F02CFF44F001043C
S31500002220DFE7002ADCD17BB1042000F074FCEEE786
S31500002230012000F03CFC04460028D1D02968002982
S31500002240CFD000F017FFCCE7012000F064FCF2E7E6
S31500002250F8B505460C4620F0010600F00107FFF729
S31500002260CDFEA0B9012D15D92146304667B100F043
S3150000227083FE012801D10020F8BD002C14BF6FF0A9
S3150000228001006FF00200F7E700F0C2FDF1E76FF022
S315000022900500F1E76FF00300EEE770B5044620F0A5
S315000022A0010500F00106FFF7A9FE90B9012C13D92C
S315000022B046B1284600F010FC01280CBF00206FF044
S315000022C0020070BD334632463146284600F033FBE5
S315000022D0F2E76FF00500F4E76FF00300F1E773B57E
S315000022E004460E461546FFF789FE70BB6CB3B44232
S315000022F02BD35DB9012C3BD120460322002100F0EF
S31500002300BCFA044608B396B905B32AE0D5E9023209
S31500002310CBB14F2A19D9012C1BD1032200920146B9
S315000023200246204600F068FA044670B1CEB100239A
S315000023301A461946204600F0FEFA0128E4D0204647
S3150000234000F0E2FE01E0002AD4D00024204602B0CC
S3150000235070BD20461A46314600F0BFFA04460028F2
S31500002360F3D029680029F1D0204600F083FEEDE77E
S315000023702046314600F0CAFA04460028C4D1E4E7F4
S3150000238037B50C46054618B96FF0030003B030BDEB
S31500002390FFF734FED8B1002CF6D101AA2146284613
S315000023A0019400F00AFE012802D06FF00200EDE76A
S315000023B0019B0BB90020E9E74FF0E0234FF0805274
S315000023C0C3F8042DBFF34F8FBFF36F8FF2E721469B
S315000023D0284600F01DFD0128ECD0002CE5D06FF05A
S315000023E00100D3E713B5044628B3FFF707FE0346FB
S315000023F0C8B1002301A92046019300F00AFC012878
S3150000240003D06FF0020002B010BD019B4BB14FF03C
S31500002410E0234FF08052C3F8042DBFF34F8FBFF374
S315000024206F8F0020EFE702460146204600F083FA50
S315000024300128F6D0E5E76FF00300E4E7F7B50546B7
S315000024400E461446FFF7DAFD18B10025284603B0FC
S31500002450F0BD002DF9D0002EF7D03CB3D4E90232FE
S31500002460BBB14F2AF1D92269002AEED0676906FB73
S3150000247005F18F42E9D300903146284600F0BCF9B9
S3150000248005460028E1D021680029DFD000F0F2FDE2
S31500002490DCE7002AD9D12369002BD6D16269002A4C
S315000024A0D3D13146284600F0E8F9E9E7224631461D
S315000024B0284603B0BDE8F04000F0DFB973B51C460E
S315000024C005460E46FFF79AFD0346F0B15DB356B3D7
S315000024D04CBB234601AA31462846019400F02DFB49
S315000024E0012803D06FF0020002B070BD019B0BB94A
S315000024F00020F9E74FF0E0234FF08052C3F8042D97
S31500002500BFF34F8FBFF36F8FF2E765B15EB122461F
S315000025103146284600F00FFA0128E9D0002CE1D018
S315000025206FF00100E0E76FF00300DDE773B50546E5
S315000025300E461C46FFF762FDE8B155B34EB344BBE9
S3150000254001AA31462846019400F037FD012803D040
S315000025506FF0020002B070BD019B0BB90020F9E7D5
S315000025604FF0E0234FF08052C3F8042DBFF34F8F96
S31500002570BFF36F8FF2E765B15EB12246314628465A
S3150000258000F0A7FB0128E9D0002CE1D06FF0010094
S31500002590E0E76FF00300DDE7034B0360034B0B60DE
S315000025A04FF480731360704790110100900D010085
S315000025B0034B0360034B0B604FF4007313607047CB
S315000025C0180D01001805010000F108034FF0FF3255
S315000025D0C0E90223436003610023036070470023C0
S315000025E00361704743684B609A688A6051609960DE
S315000025F00368086101330360704730B50C68631CDB
S315000026000AD103695A684A6091608B605960036811
S3150000261008610133036030BD00F1080213465268B9
S315000026201568A542FAD9EDE7D0E9011203698A6077
S3150000263051605968814208BF5A60002202611868D9
S3150000264001381860704710B5044600F0D3FFA46B3C
S3150000265000F0F0FFB4FA84F0400910BD70B51646DC
S31500002660026C856B044642B906689EB980680CF018
S315000026703BFCA6600135A56370BD6EB940680AF0E3
S3150000268037FD6368226C1344A2686360934224BFDB
S31500002690236863600020EDE7C0680AF029FD226C1C
S315000026A0E36851429B1A2268E36093423EBFA368E7
S315000026B05B18E360022EEDD10DB1013DEAE7284635
S315000026C0D8E7034610B41A6C08466AB1DC68996804
S315000026D014448C4228BF1968DC6028BFD960D968C9
S315000026E05DF8044B0AF004BD5DF8044B704770B505
S315000026F0044600F07FFF94F8455004F124066DB2BD
S31500002700002D14DCFF2384F8453000F093FF00F021
S3150000271071FF94F8445004F110066DB2002D12DCDE
S31500002720FF2384F84430BDE8704000F083BF636A3D
S31500002730002BE7D030460CF0DBFB08B10CF0E4FBD5
S31500002740013D6DB2DCE72369002BE9D030460CF081
S31500002750CFFB08B10CF0D8FB013D6DB2DEE770B5DA
S315000027600E46044640B94FF0140383F31188BFF3B5
S315000027706F8FBFF34F8FFEE7C56BA5B3036CA3FB4B
S31500002780053585BB00F036FFD4E90F31226862605B
S315000027904B43D0185B1A1A44FF23A563A06084F844
S315000027A04430E26084F84530A6B9236973B104F178
S315000027B010000CF09DFB48B14FF0E0234FF0805223
S315000027C0C3F8042DBFF34F8FBFF36F8F00F032FFB6
S315000027D0012070BD04F11000FFF7F6FE04F124009D
S315000027E0FFF7F2FEF2E74FF0140383F31188BFF30D
S315000027F06F8FBFF34F8FFEE737B50D461C4643B9C3
S315000028004FF0140383F31188BFF36F8FBFF34F8F1D
S31500002810FEE748B3B2B139B350230193019B502B65
S3150000282019D1019B22600121C4E90F0584F84610E5
S315000028302046FFF794FF9DF8183084F84C30204668
S3150000284003B030BD81B950230193019B502B02D1B7
S31500002850019B2246E6E74FF0140383F31188BFF38A
S315000028606F8FBFF34F8FFEE74FF0140383F311888A
S31500002870BFF36F8FBFF34F8FFEE72DE9F0410D4693
S315000028801746064600B3A1FB0038B8F1000F1BD16E
S31500002890484310F1510F17D8503000F0F1FF0446AD
S315000028A068B180F846806DB100F15003C4E90F6548
S315000028B0236001212046FFF752FF84F84C70204622
S315000028C0BDE8F0810346F1E74FF0140383F3118866
S315000028D0BFF36F8FBFF34F8FFEE713B513460C465A
S315000028E058B1884209D30222009200221146FFF70E
S315000028F083FF00B1846302B010BD4FF0140383F36D
S315000029001188BFF36F8FBFF34F8FFEE710B50C46EC
S3150000291040B1884206D302220021FFF7AEFF00B184
S31500002920846310BD4FF0140383F31188BFF36F8FD8
S31500002930BFF34F8FFEE7F0B585B00E4601921D46F8
S31500002940044640B94FF0140383F31188BFF36F8F29
S31500002950BFF34F8FFEE751B9036C43B14FF0140339
S3150000296083F31188BFF36F8FBFF34F8FFEE7022DFE
S315000029700BD1E36B012B08D04FF0140383F31188BE
S31500002980BFF36F8FBFF34F8FFEE70CF0C9FA08B99C
S31500002990019B03BB00F02EFEA26BE36B9A4223D28F
S315000029A02A4631462046FFF759FE636A1BB104F1F9
S315000029B024000CF09DFA48B14FF0E0234FF080520E
S315000029C0C3F8042DBFF34F8FBFF36F8F00F032FEB5
S315000029D0012005B0F0BD4FF0140383F31188BFF357
S315000029E06F8FBFF34F8FFEE7022DD9D000231F460E
S315000029F037E013B902A80CF04FFA00F01BFE0CF0FA
S31500002A0063FA00F0F7FD94F84430FF2B08BF84F812
S31500002A10447094F84530FF2B08BF84F8457000F0E9
S31500002A2009FE01A902A80CF047FA002839D100F0E6
S31500002A30E1FDA26BE36B9A421AD100F0FBFD01990E
S31500002A4004F110000CF04CFA2046FFF750FE0CF093
S31500002A505FFAD8B100F0CEFDA36BE26B9A429FD825
S31500002A600123019A002AC4D100F0E4FD0020B0E75A
S31500002A7000F0E0FD2046FFF73AFE0CF049FA00F0C0
S31500002A80B9FDA26BE36B9A42EAD289E74FF0E023E5
S31500002A904FF08052C3F8042DBFF34F8FBFF36F8FF3
S31500002AA0EDE72046FFF723FE0CF032FADEE713B51A
S31500002AB000220B46009011460120FFF79DFE0446BA
S31500002AC038B1002383600360C3601A461946FFF7D6
S31500002AD032FF204602B010BD38B5044640B94FF06B
S31500002AE0140383F31188BFF36F8FBFF34F8FFEE795
S31500002AF085680CF021FA85420BD1E368013BE3605F
S31500002B000BB1012038BD1A4619462046FFF713FFC0
S31500002B10F7E70020F6E710B5024600210120FFF78F
S31500002B20ACFE044638B1002383600360C3601A46D6
S31500002B301946FFF700FF204610BD2DE9F8438946E8
S31500002B4017461E46044640B94FF0140383F3118816
S31500002B50BFF36F8FBFF34F8FFEE751B9036C43B1DD
S31500002B604FF0140383F31188BFF36F8FBFF34F8FBA
S31500002B70FEE7022E0BD1E36B012B08D04FF01403B6
S31500002B8083F31188BFF36F8FBFF34F8FFEE700F01B
S31500002B9049FEEFF311884FF0140383F31188BFF356
S31500002BA06F8FBFF34F8FA26BE36B9A4201D3022E56
S31500002BB02DD194F84550A36B6DB232464946204656
S31500002BC0FFF74CFD6B1C0ED1636A3BB104F1240088
S31500002BD00CF08EF910B10FB101233B60012088F390
S31500002BE01188BDE8F8830CF06BF98542F6D27F2D8B
S31500002BF008D14FF0140383F31188BFF36F8FBFF32F
S31500002C004F8FFEE701356DB284F84550E6E70020A8
S31500002C10E5E7F8B50E46044640B94FF0140383F3D2
S31500002C201188BFF36F8FBFF34F8FFEE7036C43B17D
S31500002C304FF0140383F31188BFF36F8FBFF34F8FE9
S31500002C40FEE7036853B9836843B14FF0140383F377
S31500002C501188BFF36F8FBFF34F8FFEE700F0E2FDE1
S31500002C60EFF311874FF0140383F31188BFF36F8FCF
S31500002C70BFF34F8FA36BE26B9A4228D994F8452095
S31500002C800133FF2A55B2A3630DD1636A3BB104F148
S31500002C9024000CF02DF910B10EB101233360012090
S31500002CA087F31188F8BD0CF00BF98542F7D27F2D1A
S31500002CB008D14FF0140383F31188BFF36F8FBFF36E
S31500002CC04F8FFEE701356DB284F84550E7E70020E7
S31500002CD0E6E7F0B585B00E460192044640B94FF0DE
S31500002CE0140383F31188BFF36F8FBFF34F8FFEE793
S31500002CF051B9036C43B14FF0140383F31188BFF34A
S31500002D006F8FBFF34F8FFEE70CF00AF950B9019BA6
S31500002D1043B14FF0140383F31188BFF36F8FBFF3F2
S31500002D204F8FFEE700F066FCA56BDDB1314620460D
S31500002D30FFF7C7FC2369013DA56373B104F11000D9
S31500002D400CF0D6F848B14FF0E0234FF08052C3F8AC
S31500002D50042DBFF34F8FBFF36F8F00F06BFC012084
S31500002D6005B0F0BD019B1BB900F064FC0020F7E73D
S31500002D7002A80CF091F82F4600F05CFC0CF0A4F8C9
S31500002D8000F038FC94F84430FF2B08BF84F84470F8
S31500002D9094F84530FF2B08BF84F8457000F04AFCD4
S31500002DA001A902A80CF088F838BB2046FFF74BFCB7
S31500002DB0E8B1019904F124000CF092F82046FFF7DF
S31500002DC096FC0CF0A5F848B94FF0E0234FF080527E
S31500002DD0C3F8042DBFF34F8FBFF36F8F00F00AFCCB
S31500002DE0A56B002DA2D1019B002BC5D1BCE72046C7
S31500002DF0FFF77DFC0CF08CF8F0E72046FFF777FC38
S31500002E000CF086F82046FFF71EFC0028E6D0ADE75A
S31500002E10F0B585B00446019140B94FF0140383F331
S31500002E201188BFF36F8FBFF34F8FFEE7056C45B177
S31500002E304FF0140383F31188BFF36F8FBFF34F8FE7
S31500002E40FEE70CF06DF8064620B32E46002700F08C
S31500002E50D1FBA36B53B3013BA363236813B90CF0F7
S31500002E603BF8A060236973B104F110000CF040F840
S31500002E7048B14FF0E0234FF08052C3F8042DBFF362
S31500002E804F8FBFF36F8F00F0D5FB012005B0F0BD6B
S31500002E903546DBE7019B002BFAD04FF0140383F392
S31500002EA01188BFF36F8FBFF34F8FFEE7019B1BB9EE
S31500002EB000F0C0FB0020E9E716B902A80BF0ECFF12
S31500002EC000F0B8FB0CF000F800F094FB94F84430E6
S31500002ED0FF2B08BF84F8447094F84530FF2B08BFD9
S31500002EE084F8457000F0A6FB01A902A80BF0E4FFE8
S31500002EF050BB2046FFF7A7FB00B323683BB900F0A1
S31500002F0079FBA0680BF0F8FF054600F093FB0199EA
S31500002F1004F124000BF0E4FF2046FFF7E8FB0BF07A
S31500002F20F7FF48B94FF0E0234FF08052C3F8042D65
S31500002F30BFF34F8FBFF36F8F012688E72046FFF759
S31500002F40D6FB0BF0E5FFF7E72046FFF7D0FB0BF0CB
S31500002F50DFFF2046FFF777FB0028EDD0002DA9D034
S31500002F6000F048FB616A19B1236B1968C1F1380199
S31500002F70A0680BF0D9FF9BE770B50D46044640B933
S31500002F804FF0140383F31188BFF36F8FBFF34F8F96
S31500002F90FEE786680BF0D0FF864204D1E368013372
S31500002FA0E360012070BD29462046FFF731FF002867
S31500002FB0F8D0E3680133E360F4E72DE9F843894686
S31500002FC09046044640B94FF0140383F31188BFF3CB
S31500002FD06F8FBFF34F8FFEE751B9036C43B14FF0CC
S31500002FE0140383F31188BFF36F8FBFF34F8FFEE790
S31500002FF000F018FCEFF311874FF0140383F31188E8
S31500003000BFF36F8FBFF34F8FA66B86B394F8445010
S3150000301049466DB22046FFF754FB013E6B1CA66382
S3150000302011D1236953B104F110000BF061FF28B1EF
S31500003030B8F1000F02D00123C8F80030012087F351
S315000030401188BDE8F8830BF03BFF8542F6D27F2D51
S3150000305008D14FF0140383F31188BFF36F8FBFF3CA
S315000030604F8FFEE701356DB284F84450E6E73046EF
S31500003070E5E7000070B540B94FF0140383F31188FB
S31500003080BFF36F8FBFF34F8FFEE7B9B10C4A002332
S315000030901C4615465668864204D105EBC403C3E9AF
S315000030A000100BE01BB91668002E08BF134601344A
S315000030B0082C02F10802EDD1002BF0D170BD00BF43
S315000030C00C12010010B540B94FF0140383F31188B8
S315000030D0BFF36F8FBFF34F8FFEE7094A002352F805
S315000030E0331081424FEAC30406D1064A002142F852
S315000030F033102244516010BD0133082BEFD1FAE79B
S31500003100101201000C12010010B540B94FF0140363
S3150000311083F31188BFF36F8FBFF34F8FFEE7FFF77F
S31500003120D1FF90F846301BB9BDE8104000F07EBCD8
S3150000313010BD70B504460D46164600F05BFA94F8CD
S315000031404430FF2B04BF002384F8443094F8453004
S31500003150FF2B04BF002384F8453000F06BFAA36B05
S315000031602BB93246294604F124000BF0F1FE204625
S31500003170BDE87040FFF7BBBA914208B541600061F7
S315000031800AD8D21A83699A420DD2084B011D1868D3
S31500003190FFF733FA002008BD9A4201D2994202D2C3
S315000031A0034B011DF3E70120F5E700BFFC17010003
S315000031B00018010070B504460D461646A1692B4657
S315000031C0324629442046FFF7D7FF00B970BDA369F0
S315000031D020461D44236A9847F0E700000E4B1B6803
S315000031E0DB6870B5DC680546201D0E46FFF71CFA45
S315000031F094F828305A0709D5324629462046FFF763
S31500003200D9FF236A2046BDE87040184723F0010322
S3150000321084F82830F5E700BF00180100F8B50F4E16
S3150000322005460BF08DFE33688342044609D90C4FE0
S315000032303B681A6852B90B4A11683960136001235A
S3150000324000E000232B6034602046F8BDDB684FF0B9
S31500003250FF311868FFF7C2FFEAE700BFF017010069
S3150000326000180100FC1701002DE9F0415B4F5C4E90
S3150000327086B03B68D3F80080B8F1000F38D0DB6821
S31500003280D3F8008000240BF01FFE02A8FFF7C6FF4C
S31500003290029B0546002B48D164BB404530D30BF05A
S315000032A037FE29464046FFF799FF1022002102A863
S315000032B009F06EFE3068002202A9FFF70AFD002819
S315000032C0D7D0029B0498002B32DB049C6369002B49
S315000032D035D101A8FFF7A2FF029B013B0546082B4B
S315000032E0E8D8DFE803F03030535A733030535A00D1
S315000032F00124C8E73B4B1B681C68B4FA84F46409D4
S3150000330030682246A8EB0501FFF713FF0BF000FE1D
S315000033100028CAD14FF0E0234FF08052C3F8042DA5
S31500003320BFF34F8FBFF36F8FBFE70BF0F1FDBCE725
S31500003330039B05999847029B002BBBDBC5E7201D25
S31500003340FFF772F9C5E794F82830A16943F0010345
S3150000335084F82830039B024619442046FFF70CFFE9
S315000033600028A7D094F8283059070AD5A3690399ED
S315000033702A4619442046FFF71DFF236A2046984730
S3150000338098E723F0010384F82830F6E794F828300C
S3150000339023F0010384F828308CE794F8283043F0B2
S315000033A0010384F828300399A16141B94FF0140351
S315000033B083F31188BFF36F8FBFF34F8FFEE703468A
S315000033C0024601442046FFF7D7FE73E794F82830FB
S315000033D09A07DDD4204600F029FB6BE700180100B0
S315000033E0F8170100FC170100F7B5114C00F002F9BF
S315000033F02568BDB90F4F104E3846FFF7E5F8304641
S31500003400FFF7E2F80D4B0E4A1F600E4B10211E60AF
S3150000341005200D4B0095FFF7EFF9206010B10B4921
S31500003420FFF728FE03B0BDE8F04000F003B900BF87
S31500003430F81701001818010004180100001801000F
S31500003440A0170100FC17010050170100F900210820
S3150000345010B588B0FFF7C8FF124B1B68B3B1002444
S3150000346007AA06A905A8CDE90544FFF7A1F8059B1B
S315000034700293069B019337230093079A0A490B4848
S3150000348023460BF025FD0A4B186040B94FF0140394
S3150000349083F31188BFF36F8FBFF34F8FFEE70120D1
S315000034A008B010BDF8170100FE0021086942200887
S315000034B0F4170100000000000000000000000000FA
S315000034C0074B19680868B0E8F04F80F30988BFF326
S315000034D06F8F4FF0000080F311887047AFF30080C4
S315000034E04C17010008480068006880F308884FF010
S315000034F0000080F3148862B661B6BFF34F8FBFF346
S315000035006F8F00DF00BF000008ED00E00000000044
S31500003510EFF30980BFF36F8F154B1A681EF0100F7B
S3150000352008BF20ED108A20E9F04F10602DE9090050
S315000035304FF0140080F31188BFF34F8FBFF36F8FE6
S315000035400BF0DEFC4FF0000080F3118809BC19680F
S315000035500868B0E8F04F1EF0100F08BFB0EC108AF4
S3150000356080F30988BFF36F8F704700BFAFF3008009
S315000035704C170100DFF80C00016841F4700101608E
S315000035807047000088ED00E082B0002301930D4BE8
S315000035901B68013308D04FF0140383F31188BFF37F
S315000035A06F8FBFF34F8FFEE74FF0140383F311883D
S315000035B0BFF36F8FBFF34F8F019B002BFCD002B080
S315000035C0704700BF580000004FF0807340F8043C7D
S315000035D0074B40F80C3C21F001016FF0020340F864
S315000035E0081C40F8202C40F8243C4438704700BFA3
S315000035F0894520084FF0140383F31188BFF36F8FBA
S31500003600BFF34F8F0A4A13680133012B13600ED1A3
S315000036104FF0E023D3F8043DDBB243B14FF014037F
S3150000362083F31188BFF36F8FBFF34F8FFEE77047A9
S3150000363058000000084A136843B94FF0140383F397
S315000036401188BFF36F8FBFF34F8FFEE7013B136007
S315000036500BB983F3118870475800000008B54FF086
S31500003660140383F31188BFF36F8FBFF34F8F0BF0F3
S315000036706BFC28B14FF0E0234FF08052C3F8042DC5
S31500003680002383F3118808BD4FF0E0220023136165
S315000036909361054B4FF47A711B68B3FBF1F3013B61
S315000036A05361072313617047B4E001004FF0E02334
S315000036B037B5D3F8001D534A914208D14FF0140391
S315000036C083F31188BFF36F8FBFF34F8FFEE7D3F8F5
S315000036D0001D4D4A914208D14FF0140383F311881F
S315000036E0BFF36F8FBFF34F8FFEE7D3F8083D474A0E
S315000036F0D96A914208D04FF0140383F31188BFF3BF
S315000037006F8FBFF34F8FFEE79A6B414B9A4208D0FB
S315000037104FF0140383F31188BFF36F8FBFF34F8FFE
S31500003720FEE7002301933B4B1A78D2B28DF80220B4
S31500003730FF221A701B78384ADBB28DF803309DF8E9
S31500003740033003F01403137043B94FF0140383F3EB
S315000037501188BFF36F8FBFF34F8FFEE79DF80330DD
S31500003760DB4313F0140F10D04FF0140383F31188CA
S31500003770BFF36F8FBFF34F8FFEE7013301939DF8C1
S3150000378003305B00DBB28DF803309DF8033013F095
S31500003790800F019BF1D1082B18BF019B1F4A14BF54
S315000037A0C3F1070300231B0203F4E06313609DF8D3
S315000037B00230184A4FF0E024DBB21370D4F8203DF3
S315000037C043F47F03C4F8203DD4F8203D002543F0A0
S315000037D07F43C4F8203DC4F81C5DFFF755FF104B2E
S315000037E01D60FFF7C7FED4F8343F43F04043C4F8EA
S315000037F0343FFFF777FE0BF083FBFFF7C5FE284645
S3150000380003B030BD71C20F4170C20F41C1442008E0
S315000038101145200800E400E0301801002C180100D2
S3150000382058000000EFF305830F2B0ED9114A9B5C5D
S31500003830114A12789A4208D94FF0140383F311887B
S31500003840BFF36F8FBFF34F8FFEE74FF0E0230B4AB6
S31500003850D3F80C3D126803F4E063934208D94FF0A5
S31500003860140383F31188BFF36F8FBFF34F8FFEE707
S31500003870704700BFF0E300E0301801002C1801008B
S31500003880F8B5431E0A33624D24D90BF01DFB2B6895
S3150000389063BB00245F4A604853071FBFD11D21F058
S315000038A0070102F54842531A0CBF4FF448430A4633
S315000038B01344083B23F00703002141600260C3E97B
S315000038C00011991AC2E900312B60544B1960544B10
S315000038D019601BE010F0070300F108040BD10BF090
S315000038E0F3FA2B68002BD5D0002C11DA0BF010FB65
S315000038F000252846F8BDA3F10902A242C5D310301F
S31500003900C41A0BF0E1FA2B68002BC3D0002CEDDDB6
S31500003910DFF80CC1DCF80010A142E7D33E4ADFF81D
S31500003920F4E01368734502D33E4FBB4217D94FF0FC
S31500003930140383F31188BFF36F8FBFF34F8FFEE736
S31500003940764502D3BE421A4608D94FF0140383F3D4
S315000039501188BFF36F8FBFF34F8FFEE7334658686A
S31500003960A04202D21E68002EEAD12D689D42BDD02B
S3150000397015680835754501D3BD4208D94FF01403C3
S3150000398083F31188BFF36F8FBFF34F8FFEE71F6876
S315000039901760A0420FD3001B102819D91E1916F064
S315000039A0070F11D04FF0140383F31188BFF36F8F05
S315000039B0BFF34F8FFEE74FF0140383F31188BFF375
S315000039C06F8FBFF34F8FFEE770605C601F5116600C
S315000039D058680A1A1149CCF800200C68A24238BF70
S315000039E00A6000221A60104A40F0004058601368CE
S315000039F0013313600BF08CFA6B073FF47AAF4FF08C
S31500003A00140383F31188BFF36F8FBFF34F8FFEE765
S31500003A104418010050180100481801003C18010024
S31500003A20401801004FE0010038180100F8B50546BE
S31500003A3000286FD0384FA0F10804BC4212D3374E8D
S31500003A40B4420FD850F8043C002B14DA50F8082C76
S31500003A50D2B14FF0140383F31188BFF36F8FBFF316
S31500003A604F8FFEE74FF0140383F31188BFF36F8F78
S31500003A70BFF34F8FFEE74FF0140383F31188BFF3B4
S31500003A806F8FBFF34F8FFEE723F0004340F8043CEF
S31500003A900BF01AFA224A55F8041C13680B441360FB
S31500003AA0204B18461A461B689C42FBD882420CD013
S31500003AB0BA4201D3B24208D94FF0140383F31188F6
S31500003AC0BFF36F8FBFF34F8FFEE750681618B442EF
S31500003AD006D1014450188342516010D1144602E0C9
S31500003AE06018834213D11048006883421FBF58688C
S31500003AF04018606018682060A24218BF14600B4A24
S31500003B00136801331360BDE8F8400BF001BA45F8BD
S31500003B10083CF1E7F8BD00BF501801004FE0010076
S31500003B20401801004818010044180100341801002B
S31500003B30F0B5254D06460F460FCD89B06C460FC42D
S31500003B4095E80F00374484E80F003046B84228D184
S31500003B506B4600206A460321D4695D68AC4284BF87
S31500003B6096691F6801F1FF3184BFC2E90675C3E992
S31500003B7000648142A2F10802EED1022901F101009E
S31500003B8003F10803E6D1114B009A01219954029AD8
S31500003B9002219954049A9854069A0421995409B01A
S31500003BA0F0BD10F8014B062244FA02F308A903F00F
S31500003BB0030301EBC303023A53F81C1C013143F81B
S31500003BC01C1C931CF0D1C1E70801210850E001003C
S31500003BD02DE9F0410E460546114630461446FFF7DC
S31500003BE0A7FF0023DFF8ECC0321918461C46012156
S31500003BF0B24201D1BDE8F081062796F800E04EFA00
S31500003C0007FE0EF0030E1CF80EE00EF1FF3EBEF1AD
S31500003C10030F0BD8DFE80EF0021F10280133072B25
S31500003C2004D92C5403F0070301300024023F17F196
S31500003C30020FE2D10136DBE7C3F1070E01FA0EFEF1
S31500003C40013344EA0E04072BE4B281BF2C5403F07F
S31500003C50070301300024C3F1070E01FA0EFE44EA01
S31500003C600E04E4B20233DAE7C3F1070E01FA0EFEE0
S31500003C7044EA0E0403F1010EBEF1070F88BF0EF0F1
S31500003C80070EE4B2CEF1070388BF2C5401FA03F302
S31500003C9088BF002444EA030488BF0130BEF1070F41
S31500003CA0E4B20EF1010304D12C5401230130802427
S31500003CB0BCE7C3F1070301FA03F31C43BEF1060F89
S31500003CC0E4B204BF2C5400240EF1020304BF0130F9
S31500003CD02346ABE750E0010030B5114B93F858305E
S31500003CE0013BDBB2FD2B8FB018D80E4D0FCD6C46C5
S31500003CF00FC40FCD0FC40FCD0FC495E8030084E8A1
S31500003D000300094C6846D4F8443712F009FF05F061
S31500003D100DF9D4F8443700200FB030BD0120FBE781
S31500003D2000021F0858021F0800800524134B016873
S31500003D30D3F84437F0B50127013900D2F0BDD0F8E9
S31500003D4008C04668CCF38455C5EBDC6234680132A2
S31500003D500023013A0CD203FA05F203EA0C03C3F37B
S31500003D60150324EA0202AB40134333600830E3E74D
S31500003D7007FA02FE43EA0E03EBE700BF00800524C4
S31500003D8008B51848FFF7D2FF1748FFF7CFFF05F031
S31500003D9045FB05F057FB05F061FB05F073FB05F0ED
S31500003DA07DFB1248FFF7C2FF1148FFF7BFFF11481E
S31500003DB0FFF7BCFF1048FFF7B9FF1048FFF7B6FF43
S31500003DC00F48FFF7B3FF0F48FFF7B0FF0E48FFF7A6
S31500003DD0ADFF0E48FFF7AAFFBDE808400C48FFF705
S31500003DE0A5BF00BF1C1A000080190000BC1500000A
S31500003DF0881600007C1600009C1600005C1500006A
S31500003E00501500004415000098150000E01500004C
S31500003E10D415000010B5254CFFF7B2FF94F8040640
S31500003E2000F00100FFF758FF4FF4C023C4F86C34CC
S31500003E30D4F840311E4843F40023C4F84031D4F886
S31500003E40403143F00103C4F84031D4F8403143F027
S31500003E500203C4F84031FFF769FF16491648D1F846
S31500003E60103543F00203C1F81035636923F40033BB
S31500003E706361636943F480336361D0F84027D0F807
S31500003E807837C2F34342023A23F4F07343EA42130B
S31500003E90C0F87837D1F8943443F40023C1F8943449
S31500003EA0236943F46013236110BD00BF008004241E
S31500003EB0A817000000A005240080052408B550B10D
S31500003EC00748FFF733FF0748FFF730FF0648BDE80E
S31500003ED00840FFF72BBF0548FFF728FF0448F6E721
S31500003EE0F0170000981800008C18000064180000F5
S31500003EF0101800000B48D0F800D05DF804EB5DF810
S31500003F0004CB5DF804BB5DF804AB5DF8049B5DF87B
S31500003F10048B80BC40BC20BC10BC08BC04BC02BCEA
S31500003F2001BC704760E00100114AD2F8103623F454
S31500003F308073C2F810360F4B596B41F0010159637B
S31500003F40596B41F0020159630423C2F8383482B038
S31500003F5000238DF807309DF80730092B01D902B0F0
S31500003F60704700BF9DF807300133DBB2F1E700BFB1
S31500003F700080042400840424FEE7FEE7054B064A7D
S31500003F8006498B4200D3704752F8040B43F8040BE2
S31500003F90F7E700BF100000003C7D2108701A000002
S31500003FA0064B0748DA1C121AC11E22F00302994278
S31500003FB088BF0022002108F0EBBF00BFDCF0010043
S31500003FC0701A000008B5FFF7D9FFFFF7E9FF00F008
S31500003FD0BBF8BDE80840FDF7B1BF000038B562B6D2
S31500003FE03A4B3B4A1A603B4B3B4A93F806363B4CEE
S31500003FF03B4D03F00F030F2B15BF3A4B4FF00063F9
S31500004000D3F89312D3F837140CBF11601160364AF7
S315000040100CBFD3F83634D3F89232136005F0C8FCDF
S3150000402005F004F92A4BE363032005F0BDFB05F018
S31500004030FFF82E4BDB694FF08061D3F880304FF0EC
S315000040408C409847EB69022060F30E33EB61284BF6
S31500004050DA696FF30202DA6105F064F91D4B1A6A38
S31500004060042161F302021A621A6A1207FCD5AB69CF
S31500004070022262F38403AB61AB691B04FCD51D4BC2
S315000040801D4D5A6E6FF341025A665A6E6FF3000267
S315000040905A66FFF749FF19490D4B21614FF4FA4063
S315000040A0E16117496062002220624FF40040C4E9D2
S315000040B00033C4E90B15C4E90F33A2606261E36003
S315000040C0A06263636164A26138BD00BFB4E0010011
S315000040D0005A6202008004245CE0010064E00100F2
S315000040E00081042400001F0858E001000001300090
S315000040F00086042400840424002D310100B4C40485
S315000041000048E8014FF0E02384B0D3F8402F019235
S31500004110D3F8442F02920199094A91420DD102998E
S31500004120084A914209D1D3F8882D0392039A42F4A2
S3150000413070020392039AC3F8882D04B0704700BF3B
S31500004140210011101100001113B5002300930193F3
S315000041502F4BD3F810250092009A00922D4A116831
S3150000416021F00F01116011681160D3F89C1421F43D
S315000041706071C3F89C14D3F8041701910199C3F830
S315000041800415D3F8001701910199C3F80015D3F867
S31500004190101541F01C01C3F81015D2F8024014F4B2
S315000041A08074FAD11C48436943F480334361436900
S315000041B064F351434361FFF7A5FF184B4FF080723C
S315000041C05A60174BC0F84031164B5A6864F3C30265
S315000041D05A60036A0E4A43F480330362036A43F467
S315000041E000330362D2F8943443F40023C2F89434C3
S315000041F0036943F4601303610B4B1A6842F400220F
S315000042001A601A6842F480221A6002B010BD00BF1C
S3150000421000A005240000052400800424000030418D
S3150000422003000800008104240084042410B520F053
S315000042304044012C02D0022C05D010BD0A4A136856
S3150000424001331360F9E7094B09489B6947F230517E
S3150000425098470848084900680C7000231A46FEF77C
S315000042602DF9064AEBE700BFC0E00100D47621082D
S31500004270D28F0000CC8F0000B8E00100BCE0010046
S3150000428037B5114CE3689847A368104898472369E7
S3150000429002209847A56A01211520A847012116206A
S315000042A0A8474FF4E1310120A847094D286810B905
S315000042B0FDF791FF2860A3690648019347F2305144
S315000042C003B0BDE830401847D47621082D522008A7
S315000042D0C4E00100D28F000013B5094C00238DF80D
S315000042E004302360074B01219B6901A89847236886
S315000042F01BB19DF8040002B010BD00F009FCF6E702
S31500004300BCE00100D476210813B5094C8DF80700EE
S3150000431000232360074B01215B690DF107009847D5
S3150000432023680BB102B010BD00F0F2FBF8E700BF46
S31500004330C0E00100D476210803681B780022202BF8
S3150000434004D0093B042B01D9D0B270470368591C2D
S3150000435001605B780132F2E70120704708B508F08A
S3150000436069FE162303604FF0FF3008BD08B508F05C
S3150000437061FE16230360FEE770B50D461446FDF791
S3150000438075FE022805D10C4B4FF0FF311868FDF77A
S315000043905FFF2E46731BA34209DBFDF767FE02286B
S315000043A003D1054B1868FDF778FF204670BD16F857
S315000043B0010BFFF7A9FFEDE7C4E001004FF0FF3066
S315000043C070474FF400534B60002070470120704740
S315000043D0002070470FB42DE9F0438BB012AB0024D8
S315000043E053F8046B019304AD8DF81040A846FFF70F
S315000043F073FF0D2805F8010B04D00A2802D00134FA
S31500004400142CF4D19E4B019FE34004F1280213F0D3
S3150000441001030DEB02041ABF002304F8183C04F84C
S31500004420173C9DF81030CDE90268002B00F04E8154
S315000044300025029B1B78002B4DD0DDF80C9099F8D7
S315000044400060002E47D002A8FFF776FF044618B199
S3150000445003A8FFF771FFECE7029A1346517813F8A9
S31500004460010B0293252801D1252907D18E4232D18D
S3150000447009F10103023203930292DAE72646204647
S31500004480A0461A7806F07C01002A7CD100B102937E
S3150000449009B3002C08BF6324082900F0878020296F
S315000044A000F0AA80042916D157F8042B4946144473
S315000044B000200E780B460131002E6AD100286FD1FC
S315000044C0B7E7692A50D01ED8632A52D011D8392AA4
S315000044D007D82F2A34D8E8B20BB0BDE8F04304B0B1
S315000044E07047582AF7D146F0200601334FF01008DE
S315000044F032E0642AEFD146F4005646F02006013336
S315000045004FF00A0828E06F3AD1B20929E3D8092A00
S31500004510E1D801A151F822F05D552008D7542008B2
S31500004520D7542008D754200881552008D75420088E
S31500004530FB542008D7542008D7542008E7542008F5
S31500004540002CC8D10A211A78303A01FB042413F84A
S31500004550012F303A092AF6D9012092E746F02006C3
S3150000456001334FF00808F7E746F020060133884686
S31500004570F2E7012C46F0040638BF01240133EBE7CD
S3150000458046F00806FAE700299BD0002881D002935E
S315000045907FE702F8016BA2424FF0010089D10B467A
S315000045A0994503933FF445AF013542E703A8FFF76A
S315000045B0C3FE039E57F8043B314603EB040C002070
S315000045C00C4611F8012B12B960B103940AE00D2ACA
S315000045D00FD8082AF8D803F8012B63454FF00100DD
S315000045E0EED10391039A96423FF423AF00221A704C
S315000045F0DAE7202AEFD1E7E703A8FFF79DFE039B42
S31500004600B8F1000F10D0B8F1100F17D11A78302A70
S3150000461014D15A7802F0DF02582A0FD102330393DD
S31500004620023C4FF0100809E01A78302A16D15A7861
S3150000463002F0DF02582AF1D04FF00808039B1A78DF
S315000046402B2A0ED02D2A0FD101330393013C4FF0B4
S31500004650FF31039A00201444844616E04FF00A08FE
S31500004660ECE701330393013C0121F2E7A9F1410391
S31500004670052B02D920B3039222E0A9F1370317E0F4
S31500004680010010000CFB083C012092F800909646B1
S31500004690B9F1000FEED0A242ECD0A9F13003DBB2A3
S315000046A0092B06D9A9F16103052BDFD8A9F1570318
S315000046B0DBB2984502F10102E4D808B1CDF80CE06E
S315000046C057F8043B0CFB01F119606DE74FF0FF351D
S315000046D001E700BF044802231421C21801334B2B03
S315000046E082F80013F9D1704700E100E0064B186824
S315000046F0002382B262F30F03000C60F31F4382B003
S31500004700184602B0704700BFD076210809207047CE
S31500004710014803F071B900BF8476210837B5044615
S3150000472006200D4600F026FBE2B2132A0346084A8D
S3150000473002D11178A52908D0127800922946054A97
S31500004740204602F043FC03B030BD6FF00600FAE7E6
S315000047505C00000084762108014803F07BB800BFA6
S31500004760847621081FB5064B1B680293054B0193FF
S31500004770054B0093054B02F05BFF05B05DF804FBAB
S3150000478058E50100E4E101006C0000008476210890
S3150000479007B5064B064A1B680193064B0093064B6A
S315000047A002F046FE03B05DF804FB00BF58E50100C9
S315000047B084762108E4E101006C00000007B5064B91
S315000047C0064A1B680193064B0093064B02F078FDE0
S315000047D003B05DF804FB00BF58E5010084762108AC
S315000047E0E4E101006C000000014902F0D5BA00BF07
S315000047F0847621080149024802F0A6BA6C0000003E
S315000048008476210807B5064B0193064B0093064AAA
S31500004810064B074902F04EF903B05DF804FB00BFF2
S31500004820DCE4010058E501006C00000000FC020019
S3150000483084762108014B1870704700BF5C000000A9
S31500004840014803F041B800BF847621080F4BDA799E
S31500004850920714D51B79ABB90D4B5A6948B142F092
S3150000486010025A615A6939B142F001025A610020B8
S31500004870704760F30412F4E761F30002F6E74FF0C5
S31500004880FF3070476FF00100704700BFE4E00100A1
S3150000489000000345024BD87900F00100704700BFC5
S315000048A0E4E001000B28014603D1054A012002F08D
S315000048B0DABF0A2803D1024A012002F0EFBF70478F
S315000048C0847621080B28014603D1054A022002F00E
S315000048D0CABF0A2803D1024A022002F0DFBF70478E
S315000048E084762108014802F0BDBA00BF847621080B
S315000048F0064B1868002382B262F30F03000C60F3C4
S315000049001F4382B0184602B0704700BF487721089F
S31500004910014B1868704700BF78000000014804F09A
S3150000492003B900BF78000000014904F0BDB800BF1C
S3150000493078000000014804F095B800BF7800000038
S3150000494037B504460B200D4600F014FA064B1B68DB
S315000049500193064B00930246054B2946204603F079
S3150000496037FE03B030BD00BF54E501006000000013
S3150000497078000000014803F027BE00BF7800000061
S31500004980014803F01EBE00BF780000007FB5104B43
S31500004990D3E90354B2F5806F2E883ABF02F1FF3394
S315000049A0C3F3090340F2FF3363F30D162E80258807
S315000049B063F30D15074B25801B680293064B019385
S315000049C0064B0093024B03F0C3FD04B070BD00BF5D
S315000049D07800000054E50100F4E0010060000000EA
S315000049E00D4B1A69B1F5806F13B538BF01F1FF336E
S315000049F0148834BFC3F3090340F2FF3363F30D1485
S31500004A00064B14801B680193054B0093024A054B25
S31500004A1003F018FD02B010BD7800000054E5010057
S31500004A20F4E00100600000000D4BDA68B1F5806F1C
S31500004A3013B538BF01F1FF33148834BFC3F309033C
S31500004A4040F2FF3363F30D14064B14801B68019389
S31500004A50054B0093024A054B03F05EFC02B010BD05
S31500004A607800000054E50100F4E001006000000059
S31500004A70024B034A1B68034903F09ABB54E5010045
S31500004A806000000078000000034B044904484FF41E
S31500004A9000129A6403F02CBB00840424600000001A
S31500004AA07800000007B5064B0193064B0093064AB3
S31500004AB0064B074903F090FA03B05DF804FB00BF0C
S31500004AC064E4010054E5010060000000001C0624B7
S31500004AD078000000014AC9B203F0ECB97800000082
S31500004AE0014AC9B203F012BA78000000014803F087
S31500004AF0E1B800BF18010000014803F0DBB800BFB1
S31500004B00D4000000014803F0D5B800BF78000000CB
S31500004B10FFF7F8BF0128014602D1044A03F0CAB9DB
S31500004B2018B9024A012003F0F1B970477800000075
S31500004B300128014603D1054A022003F0BBB918B982
S31500004B40024A022003F0E2B9704700BF7800000075
S31500004B50354BDFED366AD3F8102242F04002C3F837
S31500004B60102207EE900AD3F81022F4EEE67A42F00D
S31500004B701002F1EE10FA07EE101A82B0C3F81022F6
S31500004B8006DCF0EE086AB4EEE67AF1EE10FA08D525
S31500004B90D3F8102242F02002C3F81022002002B0FF
S31500004BA070479FED237AF4EEC77AF1EE10FA10D52E
S31500004BB0D3F810226FF30302C3F81022D3F81022A1
S31500004BC06FF38612C3F81022D3F810226FF3041283
S31500004BD0E2E777EEC77ADFED176A134A87EEA67A21
S31500004BE0F7EE007A77EE277AFCEEE77ACDED017ADA
S31500004BF09DF80430F6EE007A77EE277A07EE103A43
S31500004C00B8EE477AB4EEE77AF1EE10FAC2BFFCEEE0
S31500004C10E77ACDED017A9DF80430D2F8101263F3ED
S31500004C200301C2F81012B9E70038042433333340C5
S31500004C30CDCCCC3F0AD7A33D0A4B9A6C013A052A44
S31500004C400ED8DFE802F003050705090B586C70471C
S31500004C50D86A7047D86B7047186B7047586B7047A7
S31500004C600020704764E0010006281DD8DFE800F048
S31500004C70040A0D10131619000C4B586809B1B0FB45
S31500004C80F1F07047094B186AF8E7084B586AF5E7E0
S31500004C90064B986AF2E7054BD86AEFE7034B186BA9
S31500004CA0ECE7024BD868E9E70020E7E764E001009B
S31500004CB010B5032814D8DFE800F0020A0D100F48DB
S31500004CC0C06A7AB1A3B981B1B0FBF1F00DE00B482F
S31500004CD0C069F6E709484069F3E708488068F0E7E5
S31500004CE00020EEE723B909B9400810BD4900EBE7FB
S31500004CF0CB07FAD50229F8D9E6E700BF64E0010040
S31500004D00F8B50C461546042828D8DFE800F003213C
S31500004D101B1E2400FFF790FF15B394B106F088FF21
S31500004D20064620460F4606F083FF104B002206F08B
S31500004D3043FE02460B463046394607F01DF907F09A
S31500004D408BFAF8BD0A4BD869E6E7094B5869E3E7E1
S31500004D50074B9868E0E7064BD868DDE70020DBE7FD
S31500004D60002CEED0B0FBF4F0EBE700BF0000E03F14
S31500004D7064E0010010B50E2800F28F81DFE810F024
S31500004D800F001E002D005300720084009600B30031
S31500004D90CA00DD00E70009013201600182014FF01F
S31500004DA08C43BDE81040D869D969DA69C1F3C301FB
S31500004DB0C2F3407200F00700FFF7A2BF4FF08C432A
S31500004DC0BDE81040D869D969DA69C1F38321C2F315
S31500004DD08072C0F3C210FFF793BF4FF08C42936905
S31500004DE09469C3F3C233C4F3C324052B19D8DFE88F
S31500004DF003F003090C0F1215FFF71EFF0CB1B0FBF1
S31500004E00F4F010BD8C4B9868F8E78B4B1869F5E702
S31500004E10894B5869F2E7884BD869EFE7864BD86823
S31500004E20ECE70020EAE74FF08C42936A946AC3F3FA
S31500004E304243C4F30554032B12D8DFE803F00208FB
S31500004E400B0EFFF7F9FE002CDBD06400D7E77A4B98
S31500004E505869F8E7784B9868F5E7774BD868F2E732
S31500004E600020F0E74FF08C43BDE81040986999693F
S31500004E709A69DB69C2F34022C3F30073C1F3C5012B
S31500004E8000F00700FFF714BF4FF08C43BDE8104059
S31500004E90D86F99699A69DB69C2F34022C3F300733C
S31500004EA0C1F3C501C0F34220FFF702BF4FF08C43A8
S31500004EB09B69C3F30263042B00F2EF80DFE803F083
S31500004EC003060A0D10005C4BD8689AE7BDE810404F
S31500004ED0FFF7B2BE584B986893E7574BD86990E7EF
S31500004EE0554B58698DE74FF08C42916993699269E9
S31500004EF011F4802F5049C2F3C0520CBF486988682C
S31500004F00C3F3C3431AB1002B3FF47BAF12E083B95E
S31500004F10400876E74FF08C439A6A9B6A12F4806FDA
S31500004F20454A0CBF9069D068C3F3C523002B3FF4F4
S31500004F3068AF5B00B0FBF3F063E7404B9869996993
S31500004F40BDE81040C1F34641000FFFF78DBE3B4B55
S31500004F50DA69DB69C2F34302C3F34713052A16D89D
S31500004F60DFE802F00306090C0F12334A5068DDE74A
S31500004F70314A106ADAE7304A506AD7E72E4A906A11
S31500004F80D4E72D4AD06AD1E72B4A106BCEE7002032
S31500004F90CCE72A4B1A6A1B6AC2F34302C3F34213D5
S31500004FA0072A1DD8DFE802F004070A0D10131619A8
S31500004FB0214A5068A7E7204A106AA4E71E4A506AA9
S31500004FC0A1E71D4A906A9EE71B4AD06A9BE71A4AE8
S31500004FD0106B98E7184AD06895E7174A506B92E726
S31500004FE0002090E7154B1B6BC3F34303062B54D8E5
S31500004FF001A252F823F000BF156020081B602008AC
S3150000500021602008276020082D60200833602008D2
S31500005010C75E2008084B5868F3E6074B186AF0E6A7
S31500005020054B586AEDE6044B986AEAE6024BD86AE5
S31500005030E7E6014B186BE4E664E001000014042483
S31500005040174B5B6BC3F34303082B26D801A252F818
S3150000505023F000BF156020081B602008216020088F
S31500005060276020082D60200833602008C75E2008CE
S31500005070796020087F6020080A4B586BC1E6094B0F
S315000050809869BEE6064BD86AD96ABDE81040C1F3F6
S315000050904711C0F34300FFF7E7BD0020B1E600BFAC
S315000050A00014042464E00100024B1B68D3F8BC30F2
S315000050B0184700BF00013000024B1B68D3F8CC3004
S315000050C0184700BF00013000024B1B68D3F8EC30D4
S315000050D0184700BF0001300007EE100AFDEEC77A40
S315000050E0F8EEE76AF4EEC76AF1EE10FA41BF17EE82
S315000050F0903A013307EE903AF8EEE76A16EE900A18
S3150000510070470000024B01219B69C0B2184700BFDF
S315000051100CE60100FFF7F6BF1346054A126810B405
S31500005120546C0A46A44600215DF8044B604700BF54
S315000051300001300010B54FF4006004F0B3F8094CDC
S31500005140094B4FF000725A6422782AB9074B084877
S315000051501B6A01219B6A9847237843F00103237059
S3150000516010BD00BF5CE9010000840424000130008A
S315000051700014042482B0ADF804000A4B4FF4006218
S315000051801A609DF80420084B2AB9D3F8082242F485
S315000051900062C3F808225A68002042F001025A60F1
S315000051A002B0704700E100E0003804242DE9F04F1A
S315000051B0224B234893F81CE0224B1A7800231C4606
S315000051C002F59875D9B28E450CD8DFF88080002399
S315000051D0A8F5107902F5907CDAB2964509D8002038
S315000051E0BDE8F08F30F815108C4238BF0C460133FD
S315000051F0E8E743B929F81C300133EDE7B5F820B0EC
S31500005200594489B20AE000271FFA83FABEB2B442B3
S31500005210F2D900220C4D104635F8021F8C4203D9F4
S31500005220B142EBD1013080B2013292B25245F3D392
S3150000523001370028EAD128F81360DDE70CE6010003
S315000052402CE6010008E601006AE801006CE80100AE
S31500005250012800D17047C30701D44008F8E70020B1
S31500005260704703460120834208DC00EBD072A3EBB3
S315000052706203B3EBA00FB8BF400870474000F2E7E7
S3150000528084B02DE9F7430AAC84E80F000023ADF89B
S3150000529006309DF8BC515F4B9DF8BD715A885B681E
S315000052A0B3FBF2F30DB9012F40D15B4901250A8802
S315000052B05A4C07EE903A92B20AAB03EB820393ED97
S315000052C0057AF8EE677AB8EE477AC7EE877A17EE70
S315000052D0900AFFF701FF07EE900A0B88FCEEE77ACB
S315000052E09BB203F5987317EE902A24F813200B88C7
S315000052F09BB203F5987334F81330012B06D80B884C
S315000053009BB203F59873022224F81320444E0DF144
S3150000531038094FF00008B7EE006A5FFA88F39F423B
S3150000532007D803B0BDE8F04304B070470DF106019D
S31500005330BDE7B8F1000F17D0D9ED007A3288B8EE84
S31500005340677AD9ED017AF8EE677AC7EE277A17EE13
S31500005350900AFFF7C1FE07EE900AFCEEE77A17EE19
S31500005360903A13FB02F37380012F08D0728810461F
S31500005370FFF76EFF18B91046FFF773FF70808DB107
S315000053800B880AAA9BB202EB4303B3F8F430012B55
S3150000539008D10B889BB203F5987334F81320920852
S315000053A024F81320DFED1F7A00231FFA88F09842B5
S315000053B0ADF806300AD2F4EEC67AF1EE10FA27DC22
S315000053C008F10108023609F10409A6E70A8892B233
S315000053D002F59872013334F8122007EE102AB8EE5F
S315000053E0477A9BB2C6EE076A77EEA67ADFE70A88A7
S315000053F092B202F59872013334F812C04FEA4C0C9F
S3150000540024F812C09BB29842ADF80630EFD2D7E727
S315000054100023F8E70CE6010008E601002CE601008F
S315000054208AE801000000000007EE100ADFED087AA6
S31500005430084837EE277AF7EE006AC6EE877AFCEE62
S31500005440E77A17EE903A834228BF0346184670471C
S3150000545095BFD633404B4C0084B0F0B506AC84E81B
S315000054600E00DFED957A002123AC0DF16B050A469F
S315000054700B46CEB2B04200F2B080002B00F0A48002
S31500005480B0EE007AF4EEC77AF1EE10FAB0EE047AD6
S3150000549005DBF4EEC77AF1EE10FA00F1DD80F4EEEA
S315000054A0C77AF1EE10FAB0EE087A05DBF4EEC77AA9
S315000054B0F1EE10FA00F1D680F4EEC77AF1EE10FAAA
S315000054C0B1EE007A05DBF4EEC77AF1EE10FA00F1E0
S315000054D0CC80F4EEC77AF1EE10FAB1EE047A05DB71
S315000054E0F4EEC77AF1EE10FA00F1C280F4EEC77A54
S315000054F0F1EE10FA07DBB1EE087AF4EEC77AF1EEB8
S3150000550010FA00F1B880B1EE0C7AF4EEC77AF1EE3B
S3150000551010FAB2EE007A05DBF4EEC77AF1EE10FA75
S3150000552000F1AC80F4EEC77AF1EE10FAB2EE027A30
S3150000553005DBF4EEC77AF1EE10FA00F1A280F4EE84
S31500005540C77AF1EE10FA07DBB2EE047AF4EEC77A08
S31500005550F1EE10FA00F19880B2EE087AF4EEC77A0E
S31500005560F1EE10FA06DBB2EE0C7AF4EEC77AF1EE43
S3150000557010FA61D4B3EE017AF4EEC77AF1EE10FABE
S3150000558006DBB3EE027AF4EEC77AF1EE10FA60D4D7
S31500005590B3EE097AF4EEC77AF1EE10FA06DBB3EE53
S315000055A00A7AF4EEC77AF1EE10FA70D9B3EE0B7AF6
S315000055B0F4EEC77AF1EE10FA06DB9FED407AF4EED0
S315000055C0C77AF1EE10FA74D9DFED3D7A9FED3D7A98
S315000055D0002A18BFF0EE477A65E015F8016FA6F1CC
S315000055E0140CBCF1020F2F7C0FD894ED007AF4EE68
S315000055F0C77AF1EE10FA03D50133DBB2F0EE477A43
S315000056000D2F16D00131043433E7A7F10A0CBCF193
S31500005610020F0CD894ED007AB4EEE77AF1EE10FAA8
S3150000562003DD0133DBB2F0EE477A182EE9E7182ED8
S31500005630E6D10132D2B2E5E7DFED237A9AB39FEDE8
S31500005640217AF4EEC77AF1EE10FA23D5F0EE477A16
S3150000565029E0DFED1E7AF1E7DFED1D7AD2B1DFED4D
S31500005660197A20E0DFED1B7AF8E7DFED1B7AF5E724
S31500005670DFED1A7AF2E7DFED1A7AEFE7DFED197A56
S31500005680ECE7DFED197AE9E7DFED187AE6E7DFED1B
S31500005690187A42B19FED0A7AF4EE477AF1EE10FAE3
S315000056A048BFF0EE477ABDE8F04017EE900A04B026
S315000056B07047DFED107AECE70000000000004C4276
S315000056C095BFD6338BE16A36EFE608369F9D4236A4
S315000056D02E5A823301A90C3437F859342439EC3464
S315000056E034580F35AD186335883E8A35ACC5A735B5
S315000056F0B1B49D36F2DD1C3770B50D46164604462C
S31500005700D0B9FFF7E1FCAA4807222146FFF704FDBE
S31500005710002D40F0AA81012E00F09F810B2C1DD098
S315000057200C2C40F0F5800520FFF7CEFCA0480722A0
S315000057300521FFF7F1FC98E0012818D10220FFF7B8
S31500005740C3FC9B4807220221FFF7E6FC002D76D119
S31500005750012E00F082810B2C40F0DA800320FFF747
S31500005760B3FC072203219248FFF7D6FC96E00228F5
S315000057700ED10420FFF7A8FC072204218C48FFF76E
S31500005780CBFC002D00F06681012D40F0778155E1BC
S31500005790032805D10620FFF797FC07220621EDE72F
S315000057A0042805D10820FFF78FFC07220821E5E72A
S315000057B0052805D10A20FFF787FC07220A21DDE725
S315000057C006280CD17B4B20225A601920FFF774FC67
S315000057D01920FFF769FC78480E221921B4E707283B
S315000057E01ED1744B20225A601B20FFF765FC1B203C
S315000057F0FFF75AFC0E221B216F48FFF78DFC002D88
S3150000580000F02881012D40F0D980012E00F0198189
S315000058100C2C21D10520FFF757FC07220521A2E712
S31500005820082840F0FD80634B20225A601D20FFF7B8
S3150000583043FC1D20FFF738FC0E221D21DCE70B2C54
S315000058401ED0012D40F01A81012E00F0FA800C2C9A
S31500005850E0D00D2C00F0C1800E2C50D00F2C6FD054
S31500005860102C75D12EE0022D40D0032D52D1012EE1
S3150000587059D00E2C70D00F2C62D0102C30D121E0D4
S315000058800320FFF721FC4A4807220321FFF744FCC7
S31500005890022D2BD0032D03D1012E44D0002070BD44
S315000058A0042D00F0A480052DDAD1012E40F0A3804E
S315000058B00720FFF709FC07223D481146FFF72CFC9D
S315000058C0102C5ED13B4B20225A601A20FFF7F4FBC6
S315000058D01A20FFF7E9FB38480E221A21FFF71CFCB5
S315000058E0112C50D0072D5CD1012E88E0012ED5D188
S315000058F069E0012E67D00D2C0FD00E2CBBD10920EC
S31500005900FFF7E2FB2A4807220921FFF705FCCAE751
S315000059100D2C62D00E2C68D1F1E70B20FFF7D4FBDB
S3150000592007220B211FE70B20FFF7CEFB204807229B
S315000059300B21FFF7F1FB8FE70E2CE0D00F2CB2D135
S315000059400720FFF7C1FB072219481146FFF7E4FBC2
S31500005950062DC5D1012E4FE00920FFF7B5FB072222
S31500005960092100E70920FFF7AFFB114807220921AB
S31500005970FFF7D2FB7FE70720FFF7A6FB07221146BA
S31500005980F1E6112C0DD10B4B20225A601C20FFF79B
S3150000599093FB1C20FFF788FB07480E221C21FFF70C
S315000059A0BBFB122C2FD0082D7FF478AF012E28E0F8
S315000059B000C004240000304100001346022D7FF48D
S315000059C054AF012E99D10520FFF77EFB2E48072202
S315000059D00521FFF7A1FB0D2CAED10B20FFF774FBC1
S315000059E0294807220B21FFF797FB042DA6D1012E8C
S315000059F0B8D00F2CBFD0102C3FF464AF112CC2D0FE
S31500005A00122C7FF44BAF214B20225A601E20FFF749
S31500005A1053FB1E20FFF748FB1D480E221E21A3E65E
S31500005A200A287FF475AE0120FFF74EFB16480722C1
S31500005A300121FFF771FB012D7FF415AF012E7FF4D5
S31500005A402DAF0320FFF740FB0F4807220321FFF786
S31500005A5063FB65E6012E7FF421AF0120FFF734FBDF
S31500005A60094807220121FFF757FB0B2C3FF408AF2B
S31500005A70012D3FF4E9AE0C2C3FF455AE022D3FF458
S31500005A8038AF0D2CA9D0F0E600C004240000304148
S31500005A900000134682B02DE9F0410F2906AC84E8D8
S31500005AA00C005FD8BDF82040BDF8225044EA05033B
S31500005AB0B3F5806F56D22E4B079E9DF824809DF835
S31500005AC025E043F8212001F1100701F1400C43F8CD
S31500005AD0276001F15007B24223F81C4023F8175003
S31500005AE042D0B8F1000F17D001F1300802EB4402A2
S31500005AF0C0F8D42143F8282044EAC12242F40048E1
S31500005B00C0F8D881D0F8D881C0F8D821D0F8D821EB
S31500005B1043F82C8043F82720BEF1000F1DD001F179
S31500005B20600204EB4504344443F82240CA0202F5FD
S31500005B3080622A43C0F8D44142F40044C0F8D841F8
S31500005B4001F17004D0F8D85143F824508031C0F8E0
S31500005B50D821D0F8D82143F821200020BDE8F04113
S31500005B6002B070470120F9E742F20210F6E700BFE3
S31500005B702CE601000F2910B528D892B1144A01F17C
S31500005B80300452F82440C0F8D44101F1400452F8E0
S31500005B902440C0F8D84101F1500452F82420C0F83E
S31500005BA0D8218BB10A4B01F1600253F82220C0F8CC
S31500005BB0D42101F17002803153F8222053F82130AC
S31500005BC0C0F8D821C0F8D831002010BD0120FCE76C
S31500005BD02CE6010010B5274B27485A685A6842F050
S31500005BE001025A60D3F8082242F48062C3F8082200
S31500005BF003F5B4331A68026852BBD3F8402442F462
S31500005C006752C3F840241D4AD2F80230DC05FBD4A3
S31500005C101B4BD3F80427D107FBD5D3F80427D207AB
S31500005C20FBD4D3F84824174C174B21681A60930805
S31500005C3003F4F8530B43910001F07C0112020B436D
S31500005C4002F47832134343F0810323600123036097
S31500005C500C4B1A680A4BC3F84424084AD2F802309F
S31500005C6013F48073FAD1034A516863F3000151605B
S31500005C7010BD00BF00380424FCE501000000052427
S31500005C8000A0052404E6010000E6010084B070B51A
S31500005C902DED028B82B008AC84E80F00444C6E9A5E
S31500005CA0A2610D9A43499DF8B531BDF814012377D9
S31500005CB0013A8A4278D20DA90122934209D8012BD2
S31500005CC06FD19DF8B43173B101280FD942F2061095
S31500005CD060E00E4651F8045F3668B54264D8002D80
S31500005CE062D00132E9E7B0F5806FEFD2FFF722FA12
S31500005CF0314B32485A689FED328A6FF38A225A60D6
S31500005D00DA686FF31842DA60DA68042161F309028F
S31500005D10DA605A682B4942F480625A60FEF718FF2F
S31500005D20294B5B686360FFF755FF03F0D5FB2081C5
S31500005D3003F0C6FB208203F0D5FBC0F30D0307EE8C
S31500005D40103AB8EEC77A830BC7EE086A07EE903AA8
S31500005D50F8EEE77A77EEA67AC4ED037A03F0B6FB9F
S31500005D60C0F30D0307EE103AB8EEC77A830BC7EE01
S31500005D70086A01A807EE903AF8EEE77A002377EE74
S31500005D80A67A0193C4ED057A04F0D4F9003818BF59
S31500005D900120404202B0BDEC028BBDE8704004B069
S31500005DA07047013B0F2B90E742F20410F2E700BF69
S31500005DB00CE60100A02526000038042433333340C6
S31500005DC000007A44CDCC4C4064E0010084B010B5AC
S31500005DD02DED028B82B006AC84E80F009DF81830DA
S31500005DE00F2B7FD84249434C0B706C99A16106A9D1
S31500005DF001EB8301404849699DF8AD2122770139BD
S31500005E00814271D2012A6AD106AA02EB43039DF8A8
S31500005E10AC21B3F8F43022B1012B05D942F20610B9
S31500005E2056E0B3F5806FF9D2FFF784F9334B344867
S31500005E305A689FED348A6FF38A225A60DA686FF3E4
S31500005E401842DA60DA68042161F30902DA605A68F6
S31500005E502D4942F480625A60FEF77AFEFFF7BAFED9
S31500005E602A4B5B68636003F037FB208103F028FB55
S31500005E70208203F037FBC0F30D0307EE103AB8EEAD
S31500005E80C77A830BC7EE086A07EE903AF8EEE77A10
S31500005E9077EEA67AC4ED037A03F018FBC0F30D0380
S31500005EA007EE103AB8EEC77A830BC7EE086A01A868
S31500005EB007EE903AF8EEE77A002377EEA67A01939A
S31500005EC0C4ED057A04F036F9003818BF01204042C7
S31500005ED002B0BDEC028BBDE8104004B07047013A39
S31500005EE00F2A9AE70120F3E742F20410F0E700BF19
S31500005EF008E601000CE60100A0252600003804246F
S31500005F003333334000007A44CDCC4C4064E001008A
S31500005F100F29024610B54FF001000CD8D2F8CC413B
S31500005F2000FA01F32343D2F8CC119BB263F30F01BD
S31500005F30C2F8CC11002010BD0F29024610B54FF053
S31500005F4001000DD8D2F8CC4100FA01F343EA14431C
S31500005F50D2F8CC119BB263F31F41C2F8CC110020DA
S31500005F6010BD30B50F299DF80C402CD81F2A2AD811
S31500005F700F2B28D8012C26D845686D060FD50901A8
S31500005F8034B14518AC6B44EA835343F08063AB638A
S31500005F9001448B6B43EA42438B63002030BD5CB106
S31500005FA0D0F8081241F40071C0F80812D0F80812AF
S31500005FB063F34811C0F80812D0F8083262F30403FC
S31500005FC0C0F80832E9E70120E8E7000029B9D0F86F
S31500005FD0083261F3CB23C0F80832064B5B68DB0757
S31500005FE041BF43686FF300034360002058BF4FF082
S31500005FF0FF30704700380424C1B2024882B002B0B4
S31500006000FFF7E4BF003804240F2915D80D4B5A6852
S31500006010520603D4D3F8DC31002B0FDAD0F8DC219A
S3150000602001238B401343D0F8DC219BB263F30F02AC
S31500006030C0F8DC2100207047012070474FF404505F
S31500006040704700BF00380424B1F5007F14D2B2F5C2
S31500006050806F11D243686FF38A234360C36861F38C
S315000060601843C360C36862F30903C360436843F41B
S315000060708063436000207047012070470F2925D8B0
S31500006080012A05D1436A6FF3D75343620020704754
S31500006090022A0BD1436A6FF300034362436A6FF32C
S315000060A004134362436A6FF3C303EEE7084BD3F866
S315000060B0DC31002BEADA436A0122C3F3CF138A40AC
S315000060C023EA0201436A61F3D613DEE70120704733
S315000060D0003804240F2903464FF0010014D81A6A29
S315000060E000FA01F189B2186AC2F30F220A4362F379
S315000060F0172018621A6AC2F30F2222EA0102196AED
S3150000610062F31721196200207047000010B510B124
S31500006110012804D010BDBDE81040FFF70BB84FF4BE
S31500006120006003F0D9F80A4A13786FF3000313707E
S31500006130DBB2002BEED1074B07484FF000729A6492
S31500006140064B1B6ABDE81040DB6B0221184700BFF7
S315000061505CE90100008404240014042400013000DA
S3150000616013B50D4BADF804004FF40062C3F8802060
S31500006170BFF34F8FBFF36F8F03220121002004F07E
S31500006180ADF8044628B90120FFF7C0FF204602B04B
S3150000619010BD4FF0FF30FAE700E100E04368064A21
S315000061A061F349234360D2F8403443EA4143C2F8DD
S315000061B040340020704700BF00A0052484B02DE9BC
S315000061C0F04F2DED028BF1B07CAC84E80F009DF80A
S315000061D0853365934FF4C47201237FA9684669939A
S315000061E09DED818A9DF8845306F082FF94E80E00A7
S315000061F06598BA4CFFF730F905EE900AFFF714F9E7
S3150000620094ED017A07EE900AB8EE476AF8EE677ADF
S31500006210B7EE007A87EE065AC7EE276AC6EE857A8B
S3150000622017EE900AFEF758FF07EE900AFCEEE77AA3
S3150000623017EE903AC5EE857A9EB217EE900AFEF7F3
S315000062404BFF07EE900AFCEEE77A17EE903A9FB204
S31500006250BE4204BF0136B6B2002D5ED1BDF884330E
S3150000626027804FF4C27280A9684666809C4CADF8C0
S31500006270843106F03DFF7CAB0FCBFFF701F8FEF74C
S3150000628095FF324639462046FFF7DEFE01212046BD
S31500006290FFF784FF6368934EDFF8409243F0006394
S315000062A06360636843F040036360636865F34103BA
S315000062B063603323C4F8E431636843F00403636026
S315000062C0D4F8DC3143F00043C4F8DC310DF2E223AC
S315000062D0669306F18103A8AF06F13E0B67930DF5B1
S315000062E0F878659AEBB29A4200F28D807E4B6A93FB
S315000062F000227E4B6B9369A9104603F053FF10B141
S31500006300452840F0E78069996AAA002003F0B8FFA3
S31500006310003818BF012040426EE0B8EE488A394680
S31500006320C6EE087A17EE900AFEF7D6FE07EE106A5A
S3150000633007EE900AB8EEC77A6948B4EEE77AF1EE4E
S3150000634010FA49BFFCEEE77A324617EE903A9AB257
S315000063504DBF6280278066802780FFF775FE01218A
S315000063605F48FFF71BFF5E4B5A6842F000625A60B7
S315000063705A686FF386125A606A1E012A5A684FF0ED
S31500006380000194BF42F0020265F341025A60C3F86D
S31500006390E4115A6842F004025A60D3F8DC2161F332
S315000063A0DF72C3F8DC219DF8F1219DF844029DF8C7
S315000063B054125AB1D3F8086262F34926C3F8086248
S315000063C0D3F8086261F34816C3F80862444ED6F85B
S315000063D0083260F30403C6F80832FFF78DF92A463F
S315000063E000213046FFF74AFE62886368B3FBF2F38A
S315000063F03F4A0020C2F8803271B0BDEC028BBDE886
S31500006400F04F04B0704798F854A098F8643064933D
S3150000641018F8013F6393009352462946649B204631
S31500006420FFF79FFD36F8021F328C012A08D0AB0019
S3150000643003F1105303F58723A3F83811C3F8782125
S3150000644029462046FFF7E0FDDDE963215046FFF7C8
S3150000645053F929462046FFF76FFD7B6E6C93D7F8FC
S31500006460A4306D93669B33F802AF669340F2011336
